:10000000C0630120D5F600008DD80300A9F60000DA
:10001000A9F60000A9F60000A9F600000000000003
:10002000000000000000000000000000B5F2000029
:10003000A9F600000000000051F20000A9F600003F
:1000400071F30000A1C9020071F3000071F3000018
:1000500071F3000071F3000071F3000071F3000010
:1000600071F3000071F3000071F3000071F3000000
:1000700071F3000071F3000071F3000071F30000F0
:1000800071F3000071F3000071F3000071F30000E0
:1000900071F3000071F3000071F3000071F30000D0
:1000A00071F3000071F3000071F3000071F30000C0
:1000B00071F3000071F3000071F3000071F30000B0
:1000C00071F3000071F3000071F3000071F30000A0
:1000D00071F3000071F3000071F3000071F3000090
:1000E00071F3000071F3000071F3000071F3000080
:1000F00071F3000071F3000071F3000071F3000070
:1001000053B94AB9002908BF00281CBF4FF0FF317E
:100110004FF0FF3000F00CB8ADF1080C6DE904CEE3
:1001200000F008F8DDF804E0DDE9022304B07047D0
:10013000704700BF2DE9F04786468C460846089E6A
:10014000154674461946002B40F0C2808542B2FA2B
:1001500082F245D94AB1C2F1200300FA02FC2EFA1C
:1001600003F3954043EA0C0C94404FEA154EA8B2B5
:10017000BCFBFEF8230C0EFB18CC08FB00F943EA8D
:100180000C43994528D9EB1808F1FF3704D299455B
:1001900002D9A8F102072B44A3EB0903A4B2B3FBD5
:1001A000FEFC0EFB1C330CFB00F044EA0344A042AF
:1001B00014D92C190CF1FF3304D2A04202D9ACF1AE
:1001C00002032C44241A43EA07401EB1D440002302
:1001D00034607360BDE8F0874746DDE76346F1E7CA
:1001E00092BB431B01214FEA154EAFB2B3FBFEFC9D
:1001F000200C0EFB1C330CFB07F840EA0343984528
:1002000062D9EB180CF1FF3004D2984502D9ACF159
:1002100002002B44A3EB0803A4B2B3FBFEFC0EFBCD
:100220001C330CFB07F744EA0344A7424ED92C19B0
:100230000CF1FF3304D2A74202D9ACF102032C44E3
:10024000E41B43EA0040C0E7C2F1200320FA03F1B7
:10025000954090402EFA03F303434FEA154EAFB298
:10026000B1FBFEFC0EFB1C10190C0CFB07F841EA5D
:100270000041884504FA02F422D969180CF1FF30D4
:1002800004D2884502D9ACF102002944A1EB08014F
:100290009BB2B1FBFEFC0EFB1C110CFB07F743EA03
:1002A00001439F420ED9EB180CF1FF3104D29F425B
:1002B00002D9ACF102012B44DB1B41EA004192E779
:1002C0006046E3E76146F7E76046A3E76346B7E7C2
:1002D000834206D916B9002108467BE7C6E900E04B
:1002E000F9E7B3FA83F78FB9834201D3724508D88F
:1002F000BEEB020460EB030301209C461EB9002103
:1003000068E73846FAE7C6E9004CF8E7C7F1200C81
:10031000BB4022FA0CF41C432EFA0CF120FA0CF329
:10032000B84001434FEA14490EFA07F5B3FBF9F858
:100330001FFA84FE09FB18300B0C08FB0EFA43EA87
:1003400000439A4502FA07F240D9E31808F1FF305A
:1003500004D29A4502D9A8F102002344A3EB0A0370
:1003600089B2B3FBF9F809FB183308FB0EFE41EA2A
:1003700003418E452CD9611808F1FF3304D28E4514
:1003800002D9A8F10203214443EA0040A0FB0298ED
:10039000A1EB0E014145CE46434602D306D14D4561
:1003A00004D2B9EB020E68EB04030138002EA6D08C
:1003B000B5EB0E0261EB030101FA0CFC22FA07F324
:1003C0004CEA0303F940C6E9003198E74046C5E727
:1003D0004346D9E7034613F8012B002AFBD1181A2C
:1003E00001387047000000002DE9F843D0E90D35D1
:1003F000D0F830805C193034A0450F46164619D825
:100400001D4DA3FB05011AA3D3E90023FFF778FED6
:100410000346A4EB0800A0FB050123F07F4414A3CE
:10042000D3E90023FFF76CFE20F07F403C60306092
:10043000BDE8F883DFF840900DA3D3E90023A8FBC3
:100440000901FFF75DFE044605F1300008A3D3E97A
:100450000023A0FB0901FFF753FE24F07F4420F0A6
:100460007F403C603060BDE8F88300BFAFF30080A0
:100470008D49FD1A0700000000CA9A3B00000000E9
:1004800000230B60038A032B40F2EC802DE9F04738
:1004900000F10C09064688B00F46484604213DF09D
:1004A00088FB4588338A0488C5F30D05AB4275D3B4
:1004B00011F0BCFA034670480721A3FB000201FBC0
:1004C00003216BA3D3E90023FFF71AFE4FEA143888
:1004D00018F0040FC4F3013A0490C4F30B0440F085
:1004E000B08018F0010F039000F09E800023ADF85B
:1004F00008301846ADF80A30F3680093A4F11403ED
:10050000012B8DF806A0ADF804504CD9103CA4B2D4
:10051000012C43D810B14388FB2B3FD820461CF058
:1005200075FC0646002839D04368002B36D020469B
:100530001CF058FC0446002830D00378C58D90F894
:100540003C1090F84620806B002B08BF0135520903
:10055000002301F07F01FFF7D3FD9DF81C30EDB2C1
:1005600055FA80F06FF306038DF81C300690E18F8A
:10057000D4F89800C1F30B1140F2E24305FB0111DE
:1005800003FB01F106F038FF059073686946D879DE
:1005900007F042FC002843D0C3065AD46FF0150080
:1005A00008B0BDE8F087204628F07CFC044600280F
:1005B000F4D0D0F8B80094F86E200378002B0CBF6C
:1005C00002230123012A88BF03F1FF33D4F89820C6
:1005D00088BFDBB2D11894F89C200691C2F30602C2
:1005E0009DF81C1042F1000262F306018DF81C1008
:1005F000B0F85410C06C01FB03F340F2E24103FB7E
:1006000001F106F0F9FEA3690590002BC6D05A78D7
:10061000002AC3D1D879694607F0FEFB0028BBD178
:10062000002008B0BDE8F087484604213DF0C1FA3B
:100630000388ADF808304388043DADB2C3F30B0323
:1006400058E7042148463DF0B4FA043D0068ADB2D5
:1006500047E73846022113F0E9FC6FF0680008B064
:10066000BDE8F0876FF01500704700BFAFF3008062
:1006700000CA9A3B000000008D49FD1A00000000EE
:100680002DE9F04F8DB01D46179C9DF85890636C76
:1006900080460E4617464BB1B4F886301BB1B4F80D
:1006A00084209A422AD2D4F8882052BB4FF6FF7396
:1006B0009D421ED023780133DBB22370002B00F063
:1006C000AA806149614B81F80A9004F11C00002264
:1006D000C860C1E900870D819960012011460FF0C3
:1006E0007BFB002840F08680636C13B120461AF033
:1006F00035FA94F8240010F001070CD00DB0BDE8D5
:10070000F08FA16F40F27123A1FB0313914273F1AB
:100710000003CBD3F2E704210BA82CF021FC0B9BA8
:100720004B490097A1FB03214A4A0694CDE9037780
:10073000CDE9017738465F1A01EB5701A21A464FFF
:100740009208A7FB0272090AD20840F2471707FB7A
:1007500011330232414905910133D2B201210B9389
:1007600011F01CF810F0FD0F0BD03D493D483E4AFA
:1007700040F293733CF049FD3B4840F293713CF0EA
:100780003AF9D4F88880DDF82C90B4F88470B8F188
:10079000000F4DD0002F4BD0A36F40F2712202FB0F
:1007A00003FA324A05FB0AA3A6FB02014FF0070B2E
:1007B00009930BFB061122A3D3E90023FFF7A0FC4A
:1007C000099B2A4A1E18A9FB02010BFB09111CA355
:1007D000D3E90023FFF794FC50443044804588BFA0
:1007E000A8EB060605F101058CBFC4F88860C4F8C3
:1007F00088A01EE040F644131B4A1D4919483CF0EE
:1008000004FD194840F644113CF0F5F8636C002BE8
:100810007FF46CAF6DE717491248134A40F6221374
:100820003CF0F3FC104840F622113CF0E4F848E7B5
:1008300001352F44A4F884700DB0BDE8F08F00BFDF
:1008400000CA9A3B00000000DC9E0020A4070020A4
:1008500021F1D490209F002035488334998C0100E9
:1008600010FD0300C4F50300C8FB03008D49FD1A09
:1008700058F703000CFD0300002900F0A4812DE9C6
:10088000F04F022895B0054600F2FE82CF4E00EBF5
:100890008004C0EBC4044FF09C0B99460BFB006B2B
:1008A000A3000B939BF88C7017F00107924606EBA0
:1008B000840440F0F48294F82500FF2384F8273064
:1008C00000F003002BF0CAFB9BF88C30590700F1B5
:1008D000128194F8353004EB83039F6B94F8293030
:1008E00004EB8303D3F82CB0002F00F0EA803A46E3
:1008F0005946204619F02AFB8046002840F05F81C7
:100900009BF8003013F00E0F40F06C81236A002B2F
:1009100040F0538112F046F80C90002800F0F1826C
:1009200012F04CF80D90002800F0E8821FF026F835
:100930008046002800F0DF82D0F888004FF6FF7272
:1009400008F11C03A8F828200E93002800F0028369
:1009500008F17C0208F178010FF0A0F998F88E20D8
:1009600098F8761022F0070288F88E20002262F3B1
:10097000C30188F87610C8F88820A8F88C209BF866
:10098000002002F00F02072A00F0D08298F87620AB
:1009900022F0770242F0110288F8762001218C4A79
:1009A00098F8A601D2F801C0C8F8A7C1C8F8ADC12F
:1009B00012F801CB9288A8F8AB21A8F8B12198F8D9
:1009C000392002F03F0262F07F0288F8392098F85F
:1009D000772061F3020288F8772098F83C200CF029
:1009E000010C7F216CF3000022F0070288F8D1107F
:1009F00008216CF3410088F83C2088F8D2100022CE
:100A00004FF4C021C8F89411C8E9122288F8A60151
:100A1000A8F83220C8F82E2088F83B20C8F85020CB
:100A2000A8F89A21A8F89021404622F097FD0C9B47
:100A3000C8F85831002288F850211FF0CFFB98F8F1
:100A4000A01160F3020188F8A0111FF0CDFB98F807
:100A5000A01160F3C50188F8A01198F88C1100224C
:100A600062F3410188F88C119BF8002002F00F021C
:100A7000072A0ABF94F8251001214909404620F0B1
:100A8000C1F908F1D40022F0E7FA9C2202FB0562CA
:100A90000C9B13670D9B5367002208F11C03236214
:100AA000C8E90522C8F81C8088F800202CF06AFDEF
:100AB000002800F09C80204618F024F94FF003082D
:100AC0007DE09BF8003003F00F03072B75D00B9BE4
:100AD00003F1340030442CF019FFC0B2002840F07C
:100AE000108294F8353004EB83039F6B04233B7032
:100AF00006237B70FBE60B9B9BF88C0003F18D01BA
:100B0000C0F3C00031443A462BF06CFCFF2884F857
:100B100027003FF4DEAE38462BF0E6FAD9E69C22F9
:100B200002FB056206941269049201922BB2294AD3
:100B3000DDF82C90DFF8A08003EB430302EB830386
:100B4000099305EB45039B000020D05012AB08939E
:100B5000AA1C224B05930321CDE902000090CDF899
:100B60001C80D2B24B460227129710F0A3FD12A9A7
:100B700011F0BCFFC8B91A4A059212A94AF2D8323C
:100B8000089100920321CDE90300CDE90100CDF8E1
:100B90001C804B4606940122129710F051FD12A9B9
:100BA00011F0A4FF002800F053819C2303FB056390
:100BB0001B6A13B1204618F0A5F84FF00C08404608
:100BC00015B0BDE8F08F18F0DBB800BF209F002003
:100BD00068240400FC9E0020B51C01008106000072
:100BE000058C010003F00F03072B00F0C981C84BEF
:100BF0001B78022B00F0CA819C2303FB05630022B3
:100C00001A644FF000094B464FF09C0808FB05683A
:100C10000121A8F88690C8F8883094F8263094F816
:100C200025A04FF00009A8F8849003F001030C936D
:100C300094F824300DF14500C3F342038DF845309C
:100C40000FF0E2F9CAF3820A02460028ADD00C9BED
:100C5000009339465346584617F072FFAD49AE4BE4
:100C60000B9AB8F8787006F80290A0FB0101C01842
:100C70004FF03103C4E9059941F10701C8E9019337
:100C8000C8F80C90A0A3D3E90023FFF739FAC8F8FD
:100C9000100010F0CBFE00F118030B934FB99BF836
:100CA000009009F00F09A9F10109B9FA89F94FEA91
:100CB000591994F8248069F3000884F8248018F006
:100CC00001087FF42CAF9C2303FB056AA36CDAF8C0
:100CD00010B0002B00F0CD801B680D9393F85E30B0
:100CE00003F00303012B0F9340F0C3800DF1470382
:100CF00012A901930DF1460342460C910093204640
:100D00000B46202100F0ACFA804600287FF457AF54
:100D1000DDF849100D981AF08BFDD4F84490B9F124
:100D2000000F00F06281D9F800900B9A0C990BF13A
:100D3000020313444846129300F0CAF9129B0D991E
:100D40000E90424603F10208D9F8103098448044CE
:100D5000204601F08DFB0D9903464246204601F0E6
:100D6000CFFB00287FF421AFDAF844309DF847200C
:100D70005A75DDF83C809DF8463084F829309C2374
:100D800003FB056342F6DC309A6F002140F27123C9
:100D9000E2FB030140F2E2420023FFF7B1F9A9F8B8
:100DA00040000E9A1299484600F0BEF900287FF4E0
:100DB000FCAE4FF0010A0C9A08922BB2574A5848E1
:100DC000CDF810B005EB450C03EB43030BF24711D4
:100DD00002EB830309930694A7FB000342F82C104F
:100DE000912101FB07314F4B07934F4B0593022392
:100DF000129305EB030B4FF6FF730027039342A3F7
:100E0000D3E900230297FFF77BF95FFA8BFB019090
:100E100003210B9B00975A46384610F04BFC0C9967
:100E200011F064FE00287FF4C0AEBAF1000F0FD0BD
:100E300099F8523043F0010389F85230B8F1000FAD
:100E400006D00D9A92F85E3043F0020382F85E30CD
:100E50009C2303FB0563002093F88C2042F00102E1
:100E600083F88C201CF0C8FC98B901202BF0D8F82E
:100E70000FE0D4F84490B9F1000F70D112ABCDF867
:100E80003490CA460C9396E7214B1B78022B3FF413
:100E900094AE4FF00008404615B0BDE8F08F1C4BF3
:100EA0001B78022BF5D194F8353004EB83032046F0
:100EB0009A6B94F8293004EB8303D96A19F046F849
:100EC000804600287FF47BAEDBF84030002B3FF4F7
:100ED00074AE1A7902F0FF014AB942F2107202FBB5
:100EE0000AF2ABF88410ABF88690CBF888201B7917
:100EF000002BCED061E60D9811F066FD0C9811F034
:100F000057FD4FF007085AE68D49FD1A070000000B
:100F1000C33F012000CA9A3B8C49FD1AFC9E002069
:100F2000002AE784B51C01008106000094F8252002
:100F3000C9B2520962F3020188F8761094F82520AC
:100F4000C9B2520962F3061188F8761094F8251098
:100F5000490924E508F18000C8F88800F8E40B9AF4
:100F6000D9F800900BF102031344129312AB194607
:100F700048460C9300F0ACF800230E900D93FEE66B
:100F80009BF802305A067FF532AEBFE411F00AFD3D
:100F90008046A0B111F012FDD8B19C2303FB05637C
:100FA0000022C0F800800271186494F82430DB0736
:100FB0003FF527AE42F2107303FB0AF324E69C23AD
:100FC00003FB05631B6A002B9BD0204617F09AFE9B
:100FD00097E79C2303FB05631B6A13B1204617F0B8
:100FE00091FE404611F0E4FC8BE7CA46E3E600BF01
:100FF0002DE9F04190F8243090F8257090F8268083
:101000008AB00D46C3F34203044601210DF12300CB
:1010100016468DF823300EF0F7FFC7F3820708F06D
:10102000010802463B4631462846CDF8008017F0BD
:1010300087FD2149214AA0FB0131981841F10701A0
:101040001BA3D3E90023FFF75BF823699842054609
:1010500023D21B1A00220192194A02930221194B32
:101060000991A21ACA40A3FB0232D20800230A4403
:1010700009AE15490591CDE903330321D2B2069695
:101080000093184610F08AFB314611F02FFD40B94D
:10109000256100200AB0BDE8F081FAD9C21A002308
:1010A000D9E70C200AB0BDE8F08100BFAFF30080A3
:1010B0008D49FD1A0700000000CA9A3B8C49FD1AB1
:1010C000209F002035488334B51C0100000000003B
:1010D00030B5044683B00D4619F0DCF80023312208
:1010E0006360A260E3600E4A0E4B0721E0FB023111
:1010F000184609A3D3E90023FFF702F820F07F4048
:10110000206101A927F08AFA10B9019B02332B60F4
:10111000002003B030BD00BF8D49FD1A070000005C
:1011200000CA9A3B8C49FD1A2DE9F04700268CB085
:101130008846C0E9056622490670174654220446CF
:101140000EF07CFD0546B4F840001E4940F2E24234
:1011500002FB00F002230B93A0FB010116A3D3E9CD
:101160000023FEF7CDFF0DF12C0ACDF820A0069448
:10117000194623691F44144B0793144B059381466A
:10118000002310464FF47A72CDE90367FEF7B8FFEB
:101190000535EDB2CDE9019043462A46009630462A
:1011A000032110F04DFA514611F0A0FC0CB0BDE83F
:1011B000F08700BFAFF300808D49FD1A07000000E3
:1011C00038A1002000CA9A3BB51C0100D1A2010041
:1011D00070B590F803C01CF0010F14BF00F10A04B1
:1011E000041D1B481CF0020F15461E464FF0070257
:1011F000A1FB000318BF063402FB01311CF0080FED
:1012000011A3D3E9002318BF0234FEF779FFAD1B09
:1012100010492844A1FB00310D09490C04D00E4BA4
:10122000A3FB003001214509A2782078657022F0E7
:101230001F02C5F3042361F3C71013432070A3708A
:10124000204670BDAFF3008000CA9A3B000000004A
:101250008D49FD1A89888888B5814E1B00000000E1
:101260002DE9F04FA3B00D461E4640F201232C9904
:101270000D92AB432D9A0E9104460F9200F0A2817D
:1012800094F8293004EB8303D3F82CA09AF800706B
:1012900007F00F0705F40073072F0B930ED023B947
:1012A0000C27384623B0BDE8F08FD6F801203178FE
:1012B000204623B0BDE8F04F18F098BE0AF10401B3
:1012C0009AF802200A910B9912F03F0318BF9AF87E
:1012D000033011B17F2A00F294810E99089304F132
:1012E00028002CF0D7FB9AF800100278034601F092
:1012F0000F0122F03F020A4303F8022B81469AF8BD
:10130000022099F802101493920962F3871189F868
:101310000210616C089B04F11C004FF000080029CA
:1013200000F00D834A7D01EB820290690A681392F6
:10133000C2780C900230129002F00100119001F17D
:1013400014000F99109208932CF0A4FB804699F892
:10135000000098F800100C9B00F00F0021F03F01F6
:10136000014388F80010197898F80000C1F3801143
:1013700061F3861088F800001978089BC909C0B28B
:1013800061F3C71088F8000099F8021098F802007D
:10139000890961F3871015F0010288F802000992AB
:1013A0004FF0010B109A03F0010040F01881002863
:1013B00000F064819AF8000098F800C00999C0F321
:1013C000801060F3861C88F800C099F8000061F373
:1013D000861089F800000AF10A010A911198002884
:1013E00040F061810C980430089002F002019807E7
:1013F0001F9140F124810A9998F800C006310A91A2
:101400009AF800104046C90961F3C71C00F810CBD8
:101410004FF0030B99F800106FF3C71189F8001013
:1014200002F0020111B108990631089113F0080188
:10143000189102D00A9902310A91811C099115F084
:10144000080100F0FA8002213170D6F801101791DE
:10145000C6F8010005364BF0080C12F00801E3460F
:10146000199102D008990231089113F010011A91D4
:1014700002D00A9903310A914FF018018DF85410E7
:1014800009F10901109102F010011C91E90640F1E7
:10149000C780811CC6F80110032131704CF0100B7D
:1014A000053602F01001002900F0C38000211691DA
:1014B0000899033108911BF0100F1CBF05300990EB
:1014C00002F020001B90A8065FFA8BF140F19B8090
:1014D0000998C6F801004BF02001122030708B46AD
:1014E0000536C9B202F02000002800F095800020E7
:1014F0001D90089812300890880602D5099912317B
:101500000991590610D50A9B01330A9394F82530A6
:1015100003F01C03102B00F033824FF058038DF8BA
:10152000543009F10A031093530604D5089B013384
:1015300008934BF0400B1BF040031E9302D0099B15
:1015400001330993109B149A981AC0B2022803D849
:1015500009F1030310930120089B129A9B1ADBB236
:10156000022B03D80C9B0333089301230C9A527867
:101570009A42C0F0AB81099908F1020CA1EB0C0C66
:101580005FFA8CFCBCF1020F04D808F10301099149
:101590004FF0010C0B99002900F09080D51A337898
:1015A000089AD6F80110C6F80120EDB2357005365C
:1015B000002B40F09781002940F0AD8108990B93F2
:1015C0001A4687E03A493B483B4A40F2ED533BF02C
:1015D0001CFE394840F2ED513BF00DFA50E616F88A
:1015E00001EB98F800C06EF3861C88F800C099F8EB
:1015F00000C06FF3861C89F800C000283FF4EEAEEF
:10160000E9E612274DE60D9880063FF56BAF02F034
:101610002000002840F0788102F020001D906BE748
:101620000D99C9063FF53DAF02F01001002940F0C9
:10163000668102F0100116913DE717910BE70999B9
:1016400008F10A0000297FF4E5AE02F0020100294A
:1016500000F04D810C9998F800C008780999C009EC
:1016600060F3C71C40464FF0030B00F810CB99F80D
:1016700000C061F3C71C89F800C0D4E611980028A7
:1016800000F024810C9998F800C008780999C0F3FB
:10169000801060F3861C88F800C099F8000061F3A0
:1016A000861089F800000C990A3108919DE600BF68
:1016B00078FE0300C4F50300B4FD03006D0500F1DE
:1016C00007810D99890500F12681D31A0B9A089993
:1016D000DDB2134605EB020EBEF1BF0F3FF7E1ADE1
:1016E0000CEB05071744FF2F00F36C8199F80220DB
:1016F00089F80100013860F3050289F8022098F8A2
:101700000220099E0D930CF1FF3060F3050288F86A
:1017100002205A19624488F8012030462A463DF0DA
:1017200011FC0B9921B10D9B70191A463DF0FCFB81
:1017300098F802309A0600F0C780159B5B0640F1CE
:1017400032810A9A109912F8013C01F8013C531EAB
:101750000A934B1E10931B9B13B1089B123B0893DB
:101760005FFA8BF39F0602D5099B123B09931D9BE1
:1017700023B10998194612223DF0E4FB1A9B13B1DC
:101780000A9B033B0A93109E94F8253016F8032C0D
:101790006FF3050206F8032C5D092BF05DFF32287C
:1017A0008CBF0020012095FAA5F3002DB3FA83F336
:1017B00008BF4FF0FF335B0106F8013C16F8033C0D
:1017C00060F386136FF3C71306F8033C002306F893
:1017D000023C1C9B13B1089B033B08935FFA8BF3FD
:1017E000DE0602D5099B033B0993169B23B109989A
:1017F000032219463DF0A6FB189B13B10A9B023B3E
:101800000A93199B13B1089B023B0893179B002B6B
:1018100000F01A81179A537812781B0203F4706350
:101820001A431098D1B200F8051C94F88230C3F323
:1018300003031B0103EB122300F8043C099800F892
:10184000021C94F88230C3F303031B0103EB122341
:1018500000F8013C5FFA8BF39D0700F19480831E32
:101860005FFA8BF2D0070BD5119A002A00F0F980AD
:10187000089A063A116843F8061C928823F8022C4D
:1018800099F802300C9899061CBF9DF8543089F8DD
:10189000033098F802309A0618BF88F803B094F81D
:1018A000265094F82530169A05F001054FF49674E9
:1018B0005B0941460095019419F058FA139B93F87F
:1018C0005230DB0700F18A800027EAE41F27E8E4B2
:1018D000D51A3378D6F801200B920899EDB2053667
:1018E0001A46F7E600221D460B921346F2E699F8D7
:1018F00000C0099961F3C71C89F800C096E50899F2
:1019000016914CF0100BD3E54BF0200108981D9078
:101910008B46C9B2EDE599F8023089F8010001382B
:1019200060F3050389F8023098F8023088F801C0A6
:101930000CF1FF3C6CF3050388F80230F8E619F06F
:10194000AFF8089B1390002800F0A180DDF84CE070
:10195000CDF844809EF831200EEB82020121506BBD
:101960000C9084461CF8022BCDF848C002F03F02D0
:101970004170027080F803800EF11C014246DEE4E3
:101980004BF0400BD0E51F9B002B6DD0089B063B16
:10199000089309991A6841F8082C9B8821F8043C9F
:1019A000A1F108035CE71E9B002B3FF4D4AE089A1C
:1019B000099912F8013C01F8013C531E08934B1E93
:1019C0000993C8E60CF1010213442B44CA45337055
:1019D00058D00C9B984550D0452762E4139C204674
:1019E00018F058FC344A354B0721E0FB0231184609
:1019F0002FA3D3E90023FEF783FB256920F07F4462
:101A0000AC4235D22E1B0025139F2D4902235422B0
:101A1000384621930EF012F900232A490195421D00
:101A200021AD0591CDE9033303210296D2B2009393
:101A3000184606950FF0B2FE294611F057F8002817
:101A40007FF42EAC3C613FE794F882301E4903F0EE
:101A50000F0331F81320501C21F81300C2F30B02BE
:101A6000DFE60A9A063A05E70A9B063B0A9390E7E7
:101A70007FF62AAF651B0026C6E70F9A636C1278C3
:101A80005A75A9E70E9B1B7884F82930A1E7CA454F
:101A90007FF407AC0D4A0E490E484FF4C4633BF087
:101AA000B4FB0A484FF4C4613AF0A5FFFFF7F9BB55
:101AB0008D49FD1A0700000000CA9A3B8C49FD1AA7
:101AC00038A10020B51C010014A10020B4FD0300C2
:101AD000C8FE0300C4F503002DE9F04F8DB08A461F
:101AE000029318F0FDF8002800F04A8290F88C303C
:101AF000DF0706460DD490F882309C0640F1048141
:101B00001AF0FD0F40F0CB810C2420460DB0BDE84B
:101B1000F08FBAF1020FF7D990F882309D0640F1AC
:101B2000F380BAF1040F00F2FA80152323FA0AF3C6
:101B3000DB0740F11982002209ABBAF1040F8DF8DE
:101B40002420CDF82520039340F0EB800DF11F03F6
:101B500001930DF11E0300934FF40071039B304677
:101B60001746FFF77DFBBB460446002CCDD1736CB6
:101B7000002B00F092811AF0FD0500F03A81002C54
:101B800000F05A81002305930293BB7813F03F09BC
:101B900000F07A82FB7803F0010203F00808049257
:101BA00003F002092BF004FF0546002800F09D8297
:101BB00000236B70EB7007232B70AB1CB8F1000F88
:101BC00000F0E682049A002A40F08282B9F1000F08
:101BD00040F07B82391DEA7842F00802EA700A88F8
:101BE000AA8005F10608A8EB03035FFA83F9AB7836
:101BF000B9F1020F6FF38713AB709CBF05F10308B7
:101C00004FF00109002C00F04C829DF82430DDF8E3
:101C100025102246194440463DF086F9039B019366
:101C2000002300933A464FF404735946304618F0A7
:101C300055FC002840F06782029A09EB0403134424
:101C4000FF2B00F34B82AB78169909F1FF3262F358
:101C50000503AB70029BE318A0444B446B70224613
:101C600040463DF061F9029A32B10599169B214434
:101C7000194440463DF058F996F82520DDF82580B6
:101C80007B787F2A4FEA521440F2178296F826207A
:101C900002F00102DB0052002B330132934003F5C6
:101CA000297998F800306FF3050388F800302BF09D
:101CB000D3FCB84BA3FB092398F8002032288CBF33
:101CC0000020012002F03F0242EA8012002C94FA28
:101CD000A4F4B4FA84F488F8002008BF4FF0FF346D
:101CE0001A0B02EB44121B0988F8022088F8013015
:101CF000D7F8040120B10023C7F804312BF0ECFE23
:101D0000C7F80451736C97E0BAF1040F3FF4FCAECE
:101D100005D8152323FA0AF3DA0740F1CA8009AB84
:101D20000393706C437D00EB83030DF11F011430AE
:101D3000D3F818B02BF0AEFE0025CDF810A0074662
:101D4000A846B24604E0B9F1000F45D04F46B3466D
:101D500003998DF82480CDE900813A464FF4007351
:101D600059465046CDF8258018F0B8FB9DF8246000
:101D7000044668B145280BD087498848884A4FF403
:101D8000A8733BF042FA86484FF4A8713AF033FE4C
:101D9000029B2E44B5B2EB18BF2B00F3F680DBF8A4
:101DA0000461D7F80491002ECDD15646DDF810A07D
:101DB000B9F1000F3FF4D9AE7A497848784A40F239
:101DC00067133BF022FA764840F267113AF013FEAF
:101DD000002C3FF4CCAE98E672497048704A40F24D
:101DE00067133BF012FA6E4840F267113AF003FEB7
:101DF000ACE7039BCDE90053029B8DF82430169B82
:101E0000CDF825303A464FF480635946304618F0F5
:101E100065FB00283FF476AF452800F084814FF43D
:101E2000CA735F4A60495D483BF0EFF95C484FF484
:101E3000CA713AF0E0FD736C96F88C20D10717D583
:101E40001C6894F8523013F0010500F0C4800DF1C5
:101E50002008414606F128002BF01CFE0022014616
:101E60003046FFF7C5F8044600287FF44EAE736C89
:101E70009DF81F205A75BAF1010F7CD0AAF1030317
:101E8000012B78D996F88230BAF1010F94BF002265
:101E9000012262F3451386F88230002435E6BAF158
:101EA000040F3FF63CAF152323FA0AF3D8073FF59A
:101EB00042AE029B8DF82430BAF1010F169BCDF88B
:101EC000253003D0BAF1030F7FF429AF0DF11F02C3
:101ED00001920DF11E0209AB00924FF40071102225
:101EE00030460393FFF7BCF94528044624D0002C64
:101EF0007FF40BAE706C0028CFD0029ABF2A00F19D
:101F0000140053D9169BCDF82530CDF82A3008A9F6
:101F1000BF2302F141048DF824308DF829302BF0D5
:101F2000B9FD9DF820209DF81F309A42E4B2834607
:101F300040F09E805F461AE6169A0299CDF8252059
:101F40009DF829200DF11F038A1A01930DF11E033C
:101F500000938DF82420039B10224FF4007130462B
:101F6000FFF77EF90446C2E7029B8DF82430169BEA
:101F7000CDF82530A6E79DF81E3086F8293081E798
:101F8000422420460DB0BDE8F08FBB4500F0C5806F
:101F90000724BAE589888888F0FE0300C4F50300A9
:101FA000B4FD03003CFF030008FF030008A92BF069
:101FB00071FD9DF820209DF81F309A4205464AD1B8
:101FC000D5F8040120B10023C5F804312BF084FDBD
:101FD0000027BB46CBE5B26F40F2712342F6DC30FE
:101FE0002946E2FB030140F2E2420023FEF788F8B3
:101FF000A4F840000FF01AFD0746204618F04AF9F1
:10200000734A744B65600721E0FB023118463123A7
:10201000A360E5606CA3D3E90023FEF771F80DF12E
:10202000200820F07F402061414626F0F7FA78B979
:102030000899023100222046FFF776F8002840F088
:10204000AA8094F8523043F0010384F8523000E73C
:1020500007F11801EEE760496048614A40F2091350
:102060003BF0D3F85E4840F209113AF0C4FCA7E710
:1020700059495A485A4AFC233BF0C7F85848FC21B2
:102080003AF0B9FC5F4672E52BF092FC054648B386
:10209000A84607232B7085F80190AB1C08F8039F16
:1020A000A1E5029B4B44FF2B18DC6B70AB7809F168
:1020B000FF3262F30503AB70D5E523440933DB003F
:1020C0006210D34003F59679EBE507F10A0182E54A
:1020D000B9F1000FF9D007F110017CE5BB455CD0E8
:1020E000452412E5CDF81090C8463D4A3D493B488D
:1020F00040F2EB133BF089F8394840F2EB113AF02B
:102100007AFC002554E5BB4501D00446FDE4736C20
:102110009DF81F205A750446F7E4DAF844309DF81C
:102120001F205A7534E7DDF80C80169B029CCDF811
:102130002530CDE90058CDF82A303A464FF4826375
:10214000594630468DF824408DF8294018F0C6F9DC
:10215000CDE900589DF82E50169BCDF82530A4EB04
:1021600005095FFA89F2CDF82A3005928DF824200E
:102170008DF829204FF482633A465946304602953D
:1021800018F0ACF970B9002D3FF4BCAD0024FCE4AC
:1021900005F1030827E50D24B7E4736C9DF81F20B3
:1021A0005A759DE74FF4E2730F490C480C4A3BF017
:1021B0002CF80B484FF4E2713AF01DFC029B002B07
:1021C000E4D19FE5AFF300808D49FD1A07000000C0
:1021D00000CA9A3B8C49FD1AE0FE0300C4F50300D7
:1021E000B4FD03006CFE03002CFF030000000000A0
:1021F0002DE9F04FD0F848B09149DBF80030914E0E
:1022000091B064220990184608930DF017FD00253F
:1022100000F10807FF23CDE90C55FFB28DF82D30F2
:1022200004240DF13C0A0DF12E090DF138080CE0E3
:102230000D9BAB4202D06CB3013CE4B29DF82D3053
:10224000FF2B39D09F4247D00D9D7F4B0593002037
:102250000CAB00930221CDE90189CDE90300CDF853
:1022600018A00DAB0DF12D020F910FF079FB022894
:1022700000F0D3800F9B002BDAD07449744840F6ED
:10228000E30332463AF0C1FF40F6E30130463AF04C
:10229000B2FBCDE740F6E5036E496D4832463AF0B1
:1022A000B4FF40F6E50130463AF0A5FB9DF82D302D
:1022B000FF2B4FF0FF04C5D140F6E70366496448A1
:1022C00032463AF0A2FF40F6E70130463AF093FB7F
:1022D0009DF82D309F42B7D10E9B60490C9FA3F50E
:1022E0007422A2F510728A4207D903F1E873013F04
:1022F00003F5D4330C9703F5A573089A5849126E69
:10230000A1FB03139E0C5549A2F57423A3F510738A
:102310008B4207D902F1E872013702F5D4320C97EB
:1023200002F5A572099B596C4D4B487DA3FB023207
:10233000950C0A7D0E958242D3B204D00133DBB2F4
:10234000022B08BF002301EB83018C69E378D807D7
:1023500048BF0A34434858BF0434990748BF06347D
:102360001A0748BF02340721DB06A7FB000301FB65
:10237000073131A3D3E9002348BF0334FDF7C0FE82
:10238000731B1844B0F5161F05D3637843F0400360
:10239000A0F516106370344BA3FB002319095B0CE6
:1023A00047D0324AA2FB00200123C0F34C116278CF
:1023B000217063F3451202F0E00242EA11226270DA
:1023C000BBF81010BBF81430BDF82E200B4413449A
:1023D00023829BF824209BF825108A429BB206D0CA
:1023E000BBF826001B1A13F4004F08BF0A46182139
:1023F000062313FB02130BEB03025BF8033063604D
:10240000137903F01F0323722BF024F9237A43EA94
:102410004013237211B0BDE8F08F0F9B022B7FF4A5
:1024200029AF022100200FF0E9FA0F9B022BF8D010
:1024300020E7C1F30C01BAE700CA9A3B0000000094
:1024400058A200208CFF030079B5010010FE0300A4
:10245000C4F5030018FE030048FE0300BFBDF07F73
:1024600083DE1B438D49FD1A89888888B5814E1B00
:1024700038B50023C1E905330C460B708AB3256AD1
:1024800053789278687A3E33C2F305029B1A7F280C
:102490004FEA5011DBB21CD9AA7A02F00102DB002C
:1024A00052002B330132934003F27D431248134A0A
:1024B0000721E3FB002100253123A360104665605E
:1024C0000BA3D3E90023E560FDF71AFE206128463F
:1024D00038BD0B440933DB004910CB4003F2053310
:1024E000E4E791F8453001EB83039A6CC7E700BF3E
:1024F0008D49FD1A0700000000CA9A3B8C49FD1A5D
:102500002DE9F047B1F85C500E4640F2E2418CB044
:10251000904601FB05F564221D4930461F460DF02B
:102520008DFB04461B4802230B93A5FB000116A359
:10253000D3E90023FDF7E4FD0DF12C0ACDF820A02E
:102540000696194633691F44134B0793134B0593A3
:1025500000258146002310464FF47A72CDE90357D7
:10256000FDF7CEFD0834E4B2CDE9019043462246A2
:102570000095284603210FF063F8514610F0B6FA93
:102580000CB0BDE8F08700BF8D49FD1A07000000C0
:1025900058A2002000CA9A3BB51C010041B60100B8
:1025A000F0B58A784B7803F13E01C2F30503C91AEE
:1025B0008BB0C9B2044619F021F91D491AA3D3E919
:1025C0000023A0FB0101FDF79BFD266920F07F455C
:1025D000AE4221D9761B00270223164909936422B3
:1025E00020460DF02BFB00231349029600F1080250
:1025F00009AE0591CDE903330321D2B201970093CF
:10260000184606960FF0CAF8314610F06FFA38B93E
:10261000256100200BB0F0BDFBD2AF1B0026DBE72D
:102620000C200BB0F0BD00BF8D49FD1A0700000063
:1026300000CA9A3B58A20020B51C0100000000000F
:102640002DE9F843099E9DF8209037780137FFB2B5
:102650000546144698463770002F39D02C492D4B2B
:10266000A1F8088006F120000022C860C1E90054EA
:1026700081F80A909960012011460DF0ADFBA0BBD6
:10268000254AA4F57423A3F51073934206D904F1E7
:10269000E87404F5D434013D04F5A5741F4B2048BB
:1026A000A3FB043425F07F45A5FB0003A40C072100
:1026B00001FB053104F2DD2413A3D3E90023FDF768
:1026C0001FFD214604F098FEC6F89800BDE8F88387
:1026D00014491548154A40F257533AF096FD1348ED
:1026E00040F257513AF087F9B8E7104A10490E48BE
:1026F00040F264533AF089FD0C4840F264513AF0DC
:102700007AF9BDE7AFF3008000CA9A3B00000000F1
:10271000A4A3002054080020BFBDF07F83DE1B432C
:102720008D49FD1A0CFD0300C4F5030040000400B0
:1027300058F70300000000002DE9F04FD0F854B026
:10274000814FDBF81C608FB0C6F347260025FF23BE
:102750000B36CDE90B5509908DF82930F6B20424DB
:102760000DF1340A0DF12A090DF12C080CE00C9B37
:10277000AB4202D074B3013CE4B29DF82930FF2B88
:102780003AD09E4248D00C9D704B05930020022108
:10279000CDE90300CDF818A0CDF80890CDF8008061
:1027A00001900CAB0DF129020D910FF0D9F8022820
:1027B00000F0B7800D9B002BD9D0654965484FF4D8
:1027C0009D633A463AF021FD4FF49D6138463AF058
:1027D00012F9CCE740F2EA435F495E483A463AF0E4
:1027E00014FD40F2EA4138463AF005F99DF82930E7
:1027F000FF2B4FF0FF04C4D140F2EC43574955483A
:102800003A463AF002FD40F2EC4138463AF0F3F82D
:102810009DF829309E42B6D1BDF82A10BBF80E3083
:102820009BF826205B184FF000054FEA52126D41CD
:10283000A3FB023102FB05F5DBF8182009999E186D
:102840009BF81C3091F8442091F84510C3F306031F
:1028500045EB03058A42D3B204D00133DBB2022B2D
:1028600008BF0023099A02EB83039C6CE3785807A6
:102870004CBF05340434190748BF0234DA0648BF98
:10288000033437485B060B9B4FF00701A3FB0002A4
:1028900001FB03212AA3D3E9002348BF0134FDF73C
:1028A0002FFC304BA3FB002319095B0C45D02E4BAA
:1028B000A3FB0030C0F34D110123E278C4F81E6081
:1028C00063F3861294F82230A17002F0C00242EA4B
:1028D000112205F07F0523F07F03E2702B43099A54
:1028E00084F8223092F8583092F859209A4215D044
:1028F0009BF82730DBF82020C4F819209BF824200F
:102900005B09002B93FAA3F3B3FA83F302F01F02DF
:1029100008BF4FF0FF3342EA431363770FB0BDE8BF
:10292000F08F0D9B022B7FF445AF022100200FF0AA
:1029300065F80D9B022BF8D03CE7C1F30D01BCE715
:1029400000CA9A3B00000000400004000DC70100CF
:1029500010FE0300C4F5030018FE030048FE030048
:102960008D49FD1A89888888B5814E1B00000000BA
:102970002DE9F04FB5B01E46BDF8FC300B939DF825
:102980000C310D9315469DF810319DF80021BDF8CE
:10299000F8809DF804919DF808A10A920228044647
:1029A0000C9309D8054F0846C4EB041107EB01113D
:1029B0002301496A0E9319B10C2593E18821002067
:1029C00017F08EF90F90002800F08B81D0F848B0F6
:1029D000BBF1000F00F08581DBF83810002940F0D2
:1029E0008081691E1E2900F27A81C549A6F5807092
:1029F0008842DDE90A2300F2728108F1FF3189B2D1
:102A000040F6FE70814200F26A81B3F57A6F0A9354
:102A100000F265810F2A0B9200F26181B9F1070F74
:102A200000F25D81DDE90C2343EA02014AEA01017B
:102A3000012900F25481B34B18680DF0F5F8A84253
:102A4000C0F087840FF0AEFF1090002800F0818462
:102A50000FF0A8FFDDE90A321290002800F076841A
:102A6000C4EB041107EB01100901169190F84A100C
:102A7000B0F846C001F00F0E90F84B1021F00F0196
:102A80000B91C16B64F35021C16390F855100A900B
:102A900041F0010180F8551005F01F0140460CF48B
:102AA000FF5C41EA493141EA0C01FB28DDF828C00E
:102AB00028BFFB20ACF8461000F00F014EEA011EC3
:102AC0008CF84AE00B99C0F3031001438CF84B10CB
:102AD0000CF18C000021CDF82CB01196CDF84C8073
:102AE0000E46804614939346CDF8549085480DF0D9
:102AF00071F8002381460470436000F10C0200F17C
:102B0000080180690136002800F0F0800DF0C6F859
:102B10000023C9F81830A9F81C307B494846202208
:102B20000DF08CF8F3B29D4228F8020FDED8DDE9F3
:102B300013830A99119EB1F84A10DDF854904FF4AE
:102B40007A7000FB03F3B3FBF6F3022B38BF0223CA
:102B5000C1F30711013BDBB208EB01000138B0FB08
:102B6000F1F010FB03F0C0B207285A46DDF82CB094
:102B70000B9040F2E680063005466448A0FB05C095
:102B80002D1A00EB5500C0F38700C0EBC000C0B2A7
:102B90000B9007200546139006FB03F303FB05F596
:102BA000531C03F00F03DDF82CC0594A03FB00F05F
:102BB00000F01F0E40F2E24000FB0CFCB5FBFCF500
:102BC00000FB05F01190A2FB0002C2F38B250A98CE
:102BD000CDF850E01795DDF84CC090F846206CF326
:102BE000471280F84620C28F65F30F12C28790F813
:102BF0004F2063F3071290F8473080F84F206EF3B0
:102C0000040380F847300C9A131E18BF012319F0F3
:102C1000040F4FEA83037FD0002A90F8552001F17A
:102C200002010B4402F001024FEAC3034FEA4202E1
:102C300002F1010203F11B0303FA02F303F20E2572
:102C400014BF8B236B23934003F5BC739BB2C5F376
:102C500013051A930A9991F84A30C5F3034223F0F9
:102C60000F03134381F84A30EBB2199381F84830CF
:102C7000C5F3072381F8493091F8463003F01F036C
:102C800018930F9B0A4645325B6C15922A0C1B92D7
:102C90004BB11A68002A00F0B28292F8523013F059
:102CA000010300D01369DBF8002092F85E10890759
:102CB00044BF12699B18174A0721A3FB020201FBBC
:102CC00003210DA3D3E90023FDF71AFA119A8242DA
:102CD0003FD810980FF06CFE12980FF069FE122585
:102CE00000E04225284635B0BDE8F08F09F110001C
:102CF000C9F818000AE700BF00CA9A3B00000000AC
:102D0000FFFE0F00B4A30020B8A3002025499224A1
:102D10005917B7D18D49FD1A09F00300821D0A44E5
:102D20001A44113303320344C9F34001D200DB00DB
:102D3000CA40CB4002F196059BB2C5F313051A9326
:102D400088E70B9800F007051395054600F01F0073
:102D500022E71A9B1899101A149A03F205339BB2B2
:102D600002FB05F201FB02338342B2D8BAF1000F35
:102D700000F00482DDF828C0199A8CF84C202A0A49
:102D80008CF84D202A0C02F00F019CF84E2022F006
:102D90000F020A4383428CF84E20C0F08882002044
:102DA0000346149A1A4402F01F0305FB03F10A9D1F
:102DB00095F8532060F3071285F8532095F84720C3
:102DC00063F3040285F8472015984279C170C1F376
:102DD000034322F00F021A43C1F307234271037128
:102DE0000A9B93F853300F2B40F2EF810B9B139A01
:102DF000B3FBF2F303F00F030A9991F84B2063F34E
:102E0000071281F84B201598437BC6F3034223F049
:102E10000F03134343735FFA86FAC6F3072380F860
:102E20000BA0037391F84E2091F84F30084602F042
:102E30000F0208F00F0142EA011280F84E2023F041
:102E40000F03C8F30312134380F84F302146283094
:102E50000DF0A0FAC6F30B231493C6F303431593A6
:102E6000002840F0BB810A9D022105F1200605F1F2
:102E70002C0013962AF04EF805F1400318460B93E8
:102E800028F010F895F845300D9995F83C2060F33E
:102E9000050385F8453095F85D3003F03F0385F86C
:102EA0005D3095F83D3061F30003002161F30602C7
:102EB00085F83D3085F83C200DF17703CDE9001110
:102EC000A963C5F82E1085F8571085F8561085F8B7
:102ED00060100F9802931EAA1FAB18F0DFFC054686
:102EE000002840F074810C9B0090002B22AB0193D2
:102EF00014BF3B2323238DF88830DDE91E124FF4E5
:102F00008073584614BF3926212618F0DFFC054689
:102F1000002840F05C81731CDDF8896017993370DC
:102F2000737923F0070343EA51237371F3780A9806
:102F300001F0010203F07F0343EAC213F370C1F30F
:102F4000470333712C23737090F84620737962F332
:102F5000C703737190F84720B37962F30403B37128
:102F600090F84630B2795B0963F34712B271836C13
:102F7000727AF371C3F3034122F00F020A43C3F3E1
:102F800007237272337290F84B30D2B21B0963F38D
:102F900007127272C36C327BB372C3F3034122F027
:102FA0000F020A43C3F307233273F37290F84F30D2
:102FB000D2B21B0963F307123273B0F84A30159A84
:102FC000C3F30713737308F00F0342EA0312836A13
:102FD000C6F80F30C8F30718149B86F813A0727553
:102FE00086F816803375838DA6F81730139B0D9ADB
:102FF0000146186A0B9BC6F819001B79B9F1000F3E
:1030000099FAA9F9B9FA89F903F01F0308BF4FF03B
:10301000FF3943EA491373778B6BB3778B6B1B0ACA
:10302000F3774B8F86F8203091F83B3086F82130CB
:1030300091F83C30C3F3060343EAC21386F822300A
:103040000C9B002B40F0DD800A9A92F83C3065F32F
:10305000C71382F83C300DF1B00A0DF1C0090F9B87
:103060000A9A1C3353620E9BA3EB040807EB081863
:10307000109BC8F8A030129BC8F8C030169B126293
:103080000026FE541046C2E9056619F031FCC24A1A
:10309000C8F804600346C148C8F80C600721E3FB88
:1030A000002131231046C8F80830B9A3D3E9002322
:1030B000FDF726F820F07F46C8F810600EF0B6FC49
:1030C000183030904946304625F0A8FA309B002849
:1030D00000F091800C93119AB04BA2FB0391B04B7E
:1030E000B04ADA6002232C934846A9A3D3E900230F
:1030F0000B91FDF705F80E9B04961B1B07EB0313C2
:1031000020F07F46DC6BA84B0A9A0692A6FB03319F
:10311000B9EB03004FF007020B9BCDF820A002FB98
:10312000061163EB0101A14B0793A14B05934FF0EF
:1031300000084FF47A720023C4F34724CDF80C80C2
:10314000FCF7DEFF0B34E4B2CDE9016003210C9BF8
:10315000CDF80080224640460EF072FA51460FF03C
:10316000C5FC002840F0DA80169B9DF877208BF88C
:10317000292020331F44CBF83870B3E58342C0F0D8
:10318000B180D446149B534403F01F0305FB03F2A4
:103190000A9D95F8530095F84E1085F84C206CF375
:1031A000071085F8530095F8470021F00F0163F3ED
:1031B0000400C2F303430B43C2F3072285F8470020
:1031C00085F84E3085F84D200AE6002314E6109865
:1031D0000FF0EEFB12980FF0EBFB83E57549764894
:1031E000764A40F27D133AF010F8744840F27D11AF
:1031F00039F001FC37E602330C9330936BE713464A
:1032000051E56F4A0A9BCDF8995092E803006D4A48
:10321000249064338DF8941020920821013298464E
:1032200018462192CDF89550279529F073FE434614
:1032300003CB2B3646F8041C46F8080C1021304608
:1032400029F068FE459928AA24A83AF007FCC0B2E4
:10325000002840F08D800DF1B00A28A8524620A920
:103260003AF0DEFBC0B2002875D10DF1C00931463D
:103270004B4621AA50463AF00EFCC0B2002858D165
:103280000A9E96F8843043F0010386F88430B36ECA
:10329000C6F889301022494606F16C000CF0D4FCC7
:1032A00096F83C3043F0800386F83C30D7E6F022B5
:1032B00002FB0472C31A916C92F84600C1F3130129
:1032C000420902FB01F100F01F0000FB01F1B3FB1A
:1032D000F1F313FB02F3DBB2934228BF134603F072
:1032E0000F005EE5F02202FB0472C31A92F846104A
:1032F000926C4FEA511AC2F313020AFB02F201F078
:103300001F0101FB02F2B3FBF2F313FB0AF3DBB282
:103310009A4528BF9A460AF00F0C33E70A9B10988B
:10332000C3F824800FF044FB12980FF041FBFFF725
:1033300043BB25492048214A4FF4F97339F065FF12
:103340001E484FF4F97139F056FB99E710980FF0C9
:103350002FFB0725C6E41C491748184A4FF4F87399
:1033600039F053FF15484FF4F87139F044FB7CE70E
:1033700015491148114A4FF4F77339F046FF0F48C9
:103380004FF4F77139F037FB65E700BFAFF300800A
:103390008D49FD1A070000008C49FD1A00CA9A3BAE
:1033A00054080020D1F002008D49FD1AB51C01001F
:1033B0004126000084000400C4F50300400004001E
:1033C0000CF403003247494220F6030000000000DD
:1033D00070B5294C9DF810E094F85A5015F002058C
:1033E00042D110F0080F4FEA500605D094F8C2C041
:1033F0001CF0020F38D1683471B3A4F844104FEABE
:10340000401C94F832101D484FEACE0E0EF0180EF4
:103410000CF0200C4CEA0E0C21F038014CEA010CA7
:1034200094F83C1084F832C066F3020184F83C1032
:1034300094F85A1063F3830184F85A10A2FB000336
:10344000912101FB02310AA3D3E90023FCF758FEC6
:10345000A0642065284670BD94F83C3061F30203F7
:1034600084F83C30284670BD0C25284670BD00BF4E
:103470008D49FD1A0700000040A40020002AE784BF
:1034800010B504469DF8080022854FEA411CC00093
:10349000A17D00F018000CF0200C4CEA000C0C4848
:1034A00021F038014CEA010CA3FB0002912184F8C1
:1034B00016C001FB032104A3D3E90023FCF720FE7F
:1034C000E06210BDAFF300808D49FD1A07000000D7
:1034D000002AE784000000002DE9F04F90F85A30F0
:1034E00090F83220DFF838926FF30003044600F1C1
:1034F0003E01C3F3800060F386128DB084F85A3029
:1035000084F832200EF066FB94F83220B4F8443090
:103510008448E46102F07902002684F83220912187
:10352000A3FB0002C4E90566267001FB03217AA310
:10353000D3E90023FCF7E4FD236D7B4AA364A4EBED
:1035400009051833A2FB05259842C5F347154FF02E
:1035500031026660E660A2609CBF2661A66405EB4E
:103560004502724E8CBF2361034646F8223007465F
:103570004FEA450A002D57D199F8A43003F007030C
:10358000032B70D84FF000080EF050FA236A00F1B8
:10359000180B002B00F082800DF12C09AA4406EBD9
:1035A0008A060996CDF820900694B4F844305D4818
:1035B0000026A3FB00020396912101FB032123694E
:1035C00004935B4B07935B4B05934FF0020A52A3A6
:1035D000D3E90023CDF82CA0FCF792FD1046194644
:1035E0004FF47A720023FCF78BFD0D35D844EDB211
:1035F000CDE90170032143462A46009630460EF07D
:1036000059F849460FF072FA002843D194F85A301D
:1036100043EA0A0384F85A3016F026FB002858D0F3
:1036200000200DB0BDE8F08F012DABD199F83C30F2
:10363000DB07A7D5D4F848B0BBF1000FA2D0B9F88A
:10364000443038489121A3FB000201FB032132A33F
:10365000D3E90023FCF754FD87424FF0000847D020
:103660000023F36090E7D4F84880B8F1000F89D0C8
:10367000B9F8AC302B489121A3FB000201FB0321D8
:1036800025A3D3E90023FCF73BFD874225D0002387
:10369000336077E70C200DB0BDE8F08F0DF12C09F9
:1036A000CDE90A3321694B460AAA032003F0FCF84E
:1036B00000287FF473AF0B991F4817A3D3E90023A9
:1036C000A1FB0001FCF71CFD0A9B20F07F4B9B44F3
:1036D00064E7504628F0A4FCA2E7D9F8B03098443B
:1036E0004745D4D308F10208474598BF2561CEE786
:1036F000D9F848309B445F45B2D30BF1020B5F45CC
:10370000AED8C4F81080D9F84830C4F84880C9F859
:10371000488003F10208A3E78D49FD1A0700000065
:1037200040A40020002AE7844FECC44E28A40020C7
:10373000B51C010029D0010000CA9A3B000000001E
:103740002DE9F04F0B79063B95B00C468346072BCD
:1037500005D8DFE803F0AF048141040404134F49A6
:103760004F48504A40F2451339F04FFD4D4840F262
:10377000451115B0BDE8F04F39F03DB9D1F80880DA
:10378000D8F83C305BB148494548464A4FF49373FA
:1037900039F03BFD43484FF4937139F02CF9D8F8D8
:1037A000005028461BF04AF8E080D5F8A03010936E
:1037B00098F80B3003F0070328460D93E3680E9347
:1037C0001BF03CF810300026C3B20F93B2460B96A4
:1037D000374635460C9693E08B680C931A46334B6C
:1037E00015689D4240F09C81D5F82CA0BAF1000FDD
:1037F00000F02F854022294628460CF01FFA0F3092
:10380000C3B20F93DAF80060304619F0DBFF0746C9
:10381000002800F0B5820C9B90F85D205B791607BC
:1038200003F0070358BF426E0D9348BF0022022BDE
:103830000B9200F09A82042B00F01A82012B00F008
:103840000B8216491648174A40F2031339F0DDFC83
:10385000144840F203118CE7D1F808A0DAF81830C8
:103860004BB113490E480F4AA32339F0CEFC0D4843
:10387000A32139F0C0F8DAF8007097F85D301B0723
:1038800054BF7B6E002338460B9319F081FF0D3037
:10389000C3B20F93002604232CE000BFCC0D04001C
:1038A000C4F503001C010400F80104003CA500203D
:1038B000B4010400D1F808A0DAF818304BB1A949D6
:1038C000A948AA4A902339F0A0FCA848902139F0D1
:1038D00092F8DAF8007097F85D301A0754BF7B6EE3
:1038E000002338460B9319F053FF0D30C3B20F93EA
:1038F000002601230D93B04635460C9610960E9681
:10390000E37EC4F800B0002262F38203E37694F809
:103910002130E260002B00F0B18094F82220900664
:1039200000F0AA8094F9232094F82330002A7DDB4C
:10393000D90704F124090AD50B9A32B197F85D2012
:1039400002F03002202A40F0A58104F12A099A07EA
:1039500048BF09F10609580748BF09F1010913F0EA
:1039600008021CBF4A4609F1020913F0100116BFF4
:10397000CDF84490119109F10309990618D509F180
:1039800012011291002D00F015810B99002900F011
:103990001181002A00F00E815178384609091AF089
:1039A000DDFF002840F04083DDF8489094F8233094
:1039B00094F82220580648BF09F10109C2F3050214
:1039C00004F122010132A9EB0101C9B2D2B2914244
:1039D0009EBF511ACBB2114694F8212088BF002314
:1039E0008A4286BF521AD2B20022129222790D2A3E
:1039F00069D0119B002B77D09A785978130203F481
:103A0000F8530B4370D0002E40F034815F2A40F20F
:103A1000CB81B8F1000F00F01D83D8F80020129977
:103A2000B2F8A4301944A183A2F8A4600B9B002B28
:103A300034D097F85D3003F03002202A00F0FB808C
:103A40006FF3051387F85D30002D00F0A2806B6BDB
:103A5000002B00F0B68097F85A20D20700F187813A
:103A6000DC606C63EB6A002B00F0E980284615B03F
:103A7000BDE8F04F1AF0CCB8013BDBB2B8F1000F53
:103A800000F0B380D8F80020B2F8A4000344A38368
:103A90000B9B0021A2F8A410002BCAD1002D78D0D6
:103AA0006B6B002B00F08D805FB931492E482F4A97
:103AB00040F2E92339F0A9FB2C4840F2E92138F023
:103AC0009AFF6B6BC7E7002B93D0A07913931A462C
:103AD00049461BF0EFF8109800288AD0139B4A46FD
:103AE000214600F089FD84E7B8F1000F00F0118154
:103AF000D8F800201298B2F8A43000211844A0830E
:103B0000A2F8A410002E91D0002D00F020816B6B44
:103B1000002B00F01C81DC606C6315B0BDE8F08FF9
:103B2000284619F04FFE8246002800F0C480D4F8E1
:103B300008A0DAF818300C93002B00F080820C9B60
:103B40001D68EB6A534509D00A490748074AD02344
:103B500039F05BFB0548D02138F04DFFFF230F9370
:103B600050E600BFB4010400C4F503001C010400CA
:103B700014010400CC010400A3830B9B4BB197F804
:103B80005D3003F03002202A03D065F3051387F877
:103B90005D30214658460EF01DFF0E9A2AB10123D2
:103BA0001068137111460EF015FF15B0BDE8F04F07
:103BB0000EF01ABFDDF84890FAE66B6B002B40F070
:103BC000D680B8F1000F29D0214658460EF012FFDA
:103BD000D8F8003093F86E30DB067FF543AFD8F8A5
:103BE0003C30002B3FF43EAF97E7002DC4D02A8F26
:103BF00013449BB22B87A3830B9B002B00F0BB804D
:103C000097F85D3003F03002202A4FD068F3051397
:103C100087F85D306B6B002B7FF41DAF5C495D480E
:103C20005D4A40F2073339F0F0FA5B4840F2073161
:103C300038F0E1FEC8E7002D7FF409AFA9E7574946
:103C40005448554A40F2113339F0DFFA524840F2F5
:103C5000113138F0D0FE09E70623A67E23714FF01C
:103C60000008C6F3C006CDF84080CDF8388047E69E
:103C70000823F2E7B8F1000F00F0CC81D8F800205B
:103C80001299B2F8A43019440B460021A383A2F87C
:103C9000A41039E794F82010637E4A46C1F38011DE
:103CA00038461AF0E3FD94F823304EE66B6B002B98
:103CB0007FF4D1AEB2E7D4F80880D8F83C300C934A
:103CC000002B00F033820C9B1D68EB6A434509D042
:103CD00033493048304ADF2339F097FA2E48DF2144
:103CE00038F089FE0C9BD8F800605B7903F007037D
:103CF0000D93FF230F930D23237130461AF09EFD81
:103D0000E080D6F8A030109300260B9637460E962A
:103D1000F6E5002D00F069812B8F129A1A4493B2B8
:103D20002B87A383002E7FF4F2AE0B9B1BB397F877
:103D30005D3003F03003202B3FF489AE97F85D30FF
:103D40006FF3051387F85D3081E6129BA38340F281
:103D5000E513114A13490F4839F057FA0E4840F25B
:103D6000E51138F048FE6B6BD5E6072375E79C42FA
:103D70007FF4D1AED1E66B6B002B7FF495AE4DE7AF
:103D80000C9B5B7903F0070380460D93B3E700BFFC
:103D900060010400C4F503001C010400EC010400F0
:103DA000E00104000C020400002D00F073812B8F51
:103DB000129A13449BB240F2716293422B8700F235
:103DC0005381B8F1000F00F0AC81D8F800101298C0
:103DD000B1F8A430119E184483B20C98A1F8A43015
:103DE000A3833178037961F305030371B37801226A
:103DF0005B0902FA03F3427963F302024271E37E44
:103E00001A0700F1BF81BAF1000F00F0CE80002F39
:103E100000F0CB8197F85A3013F0010340F0D281C3
:103E2000CAF8183011990C9A91F90030002BACBFE8
:103E30001E234FF4967393608E784A784FEA0626D5
:103E400006F4F85646EA02060A780C9903FB06F6D1
:103E5000ACBF3E234FF4A67312F0400F14BF3227BD
:103E60004FF4FA77BA4A487906FB07F7A2FB07270F
:103E7000BF0C07F1100203EB42038B6000F0070058
:103E8000012129F0C7F90D9B62695907A2F130029F
:103E900040F1F280A17E94F82130C1F38001490005
:103EA000DB0001312B338B4003F5BC731644361A0B
:103EB000F61BF61A00236B60EB603123AB600C9BA2
:103EC0005B7903F00703032B00F2D38003F10902AF
:103ED000D2005B10DA409F4F00F205339E48134436
:103EE0000721E3FB070198A3D3E90023FCF708F9B6
:103EF00020F07F4094A3D3E900232861A6FB0701AB
:103F0000FCF7FEF8002220F07F46022101200BF092
:103F10002FFF0F9AFF2A17D023690020493BCDE9D4
:103F20000000334401210DF051FC10F0FD0F0BD0C7
:103F30008A498B488B4A40F2BF2339F066F9894899
:103F400040F2BF2138F057FD8749402228460BF048
:103F500075FE86492369CDE907158549CDE9051523
:103F600002462969009600200F32CDE90301CDE910
:103F70000100493BD2B201210DF062FB10F0FD0FB0
:103F80000BD07C497648774A40F2CF2339F03DF98F
:103F9000744840F2CF2138F02EFD01220221104654
:103FA00015B0BDE8F04F0BF0E3BED8F83C3083B15C
:103FB000D8F83C300C9A93420BD06F496848694A54
:103FC0004FF4197339F021F966484FF4197138F03C
:103FD00012FDD8F8003093F86E30D80600F1218138
:103FE0000C9BC8F83C302C631CE7129BA383002E6B
:103FF0007FF4ADAE0B9B002B3FF4CBAD97F85D305B
:1040000003F03002202A3FF4C4AD6FF3051387F8A4
:104010005D30BEE5002D3FF498AE2B8F129A1A4406
:1040200093B22B87A38372E54B4622462946384636
:10403000DDF8489000F028F994F82330B8E44F49AF
:104040004748484ACD2339F0E0F84648CD2138F0BA
:10405000D2FC74E5002D00F0A5802B8F129A1A4433
:1040600093B22B87A38360E60B9B002B7FF45FAE9C
:1040700016E54FF434722EE7DDF834C094F82110C1
:104080000CF003030B440933D900CCF3400321FAAD
:1040900003F30BE73A480BF09DFD0546002800F0BE
:1040A0009D800E9BC363129B038790F8203006709F
:1040B00066F3C71380F82030BAF1000F14BF5346DF
:1040C0004346C36200F11C03C0E90566066346630C
:1040D000C0610C93B8F1000F7FF477AE2C630C999C
:1040E0002B8F11986C63A38302780B7962F305031D
:1040F0000B7182780123084652094979934063F392
:1041000002014171E37E1E0747D543F00403E376C5
:104110000C9BCAF818300C9A13796FF3861313713D
:10412000FBE46B6B002BD9D0DC60D8E713490C485B
:104130000C4ADC2339F069F80A48DC2138F05BFCD2
:10414000C1E500BFAFF300808D49FD1A07000000F4
:1041500083DE1B4300CA9A3B8C49FD1A64020400AB
:10416000C4F503001C0104003CA5002021D9010076
:10417000CDD901009402040020020400C40104000F
:1041800038A5002043F00403E3760C9BC8F83C30CC
:10419000214658460EF02EFCBDE7BAF1000F7FF421
:1041A00036AE0AE7129BA38324E733493348344AE7
:1041B00040F2562339F029F8314840F2562138F0C0
:1041C0001AFC27E60B9B002B3FF4F7AC97F85D3009
:1041D00003F03002202A7FF4B3AD38E4E37E190700
:1041E00044BF43F00403E376B8F1000F21D0D8F8C0
:1041F00000101298B1F8A43018440B9BA083002241
:10420000A1F8A420002B3FF4C4AC97F85D3003F074
:10421000300120293FF4BDAC62F3051387F85D300F
:10422000B7E40B9B002BD1D16B6B002B7FF43CAC24
:10423000CAE40B9B002B3FF4ACAC97F85D3003F065
:104240003002202A3FF4A5AC68F3051387F85D30EF
:104250009FE4BC230A4A0B49084838F0D6FF0848B7
:10426000BC2138F0C8FB4022294628460BF0E6FC6A
:10427000DAF80030FFDE00BF14010400C4F50300CB
:104280001C010400E81C04002DE9F04F446E94F872
:104290003E5084F83F509B4606463223062010FBD2
:1042A0000530DBF8043023509BF80830204403F03D
:1042B0001F0303718DB0884605EB4505052104EB0E
:1042C000450517460BF0A0FE95F8373000F03F008B
:1042D00060F30503012885F8373040F2448196F8F1
:1042E0005D3094F86E20C3F3010363F3000284F899
:1042F0006E20D6F85E30A366B6F86230A4F86C3053
:104300002046DBF8093040F8203F26F021FE2086C9
:10431000BBF80D309BF80F2084F82620A384BBF84F
:104320001030E38598F8212094F8273062F30203D7
:1043300084F82730BBF802A0B4F85E2040F2E243D4
:104340001FFA8AF803FB08F842F2107108F1FF33F4
:1043500001FB0233B3FBF8F39BB2A4F86030B4F86E
:1043600060309BB2062B00F201810023A4F85C3080
:1043700094F86E30062262F3471384F86E309BF88F
:10438000089094F828304FEA591969F3C50384F866
:10439000283029F061F90546484629F05FF92A18C6
:1043A00008FB02F2884B02F5742202F23F22A3FBC3
:1043B00002324FEA5803920C963B6264A3649BF866
:1043C000013013F0200F0CBF1E234FF4967363656A
:1043D00096F85D30022565F3051386F85D30002000
:1043E00019F0C8F9864200F0DE8090F85D3065F380
:1043F000051380F85D307549A82220460BF01EFC9D
:10440000D4F898300C229E60A3F822A0D8801A71AC
:1044100094F8272083F82490C2F3020283F8212025
:10442000054694F82700012100F0070028F0F2FE6D
:104430009BF801609BF80030616D7A6906F01F0CF3
:1044400043EA0C2301FB032294F82710730601F0C2
:104450000701666C97F8213048BF02F51612032950
:10446000A8EB060640F28C80B97EC1F38001DB0028
:10447000490001312B338B4003F5BC736FF02F01E2
:10448000CB1A1B1A13440B934FF43471DFF840819D
:10449000504B4FF0070B00F2053008445946E0FB43
:1044A0000831184631234FF00009A360A6FB08A38A
:1044B000C4F80490C4F80C900A9341A3D3E90023F4
:1044C000FBF71EFE444B636620F07F463CA3D3E916
:1044D00000230A9926615046FBF712FE3F4B0694D3
:1044E00020F07F44A4FB0331BAEB03000A9B04963F
:1044F0000BFB041163EB0101394B3F69394A05930A
:1045000040F25633079208934FF47A720023CDF8A5
:104510000C90FBF7F5FD0B9BCDE90140A3FB0801D7
:1045200027A3D3E90023FBF7EBFD103520F07F40F4
:10453000493FEDB200903B462A46012148460DF026
:104540007FF810F0FD0F0ED027492848284A40F286
:10455000573338F05AFE264840F257310DB0BDE8C7
:10456000F04F38F048BA0DB0BDE8F08FB4F86030C5
:10457000B4F85C20063B9BB29A427FF6F9AEF5E6B2
:104580000B444FEA610C09330931DB00C90023FAFF
:104590000CF321FA0CF16FF02F0CACEB03031B1A98
:1045A00013440B9372E7012019F0E4F890F85D30A2
:1045B00065F3051380F85D301DE700BFAFF30080A1
:1045C0008D49FD1A0700000083DE1B43782200207E
:1045D00000CA9A3B8C49FD1A410C03008D49FD1A13
:1045E00021E0010049E1010014FC0300C4F50300CF
:1045F0002003040000000000002B00F099822DE948
:10460000F047064690B00F4614460BE062782C2A1D
:1046100015D06A1C93420FD35B1B013B13F0FF03C1
:10462000144409D02578002DF0D15B1B013B0122F9
:1046300013F0FF031444F5D110B0BDE8F087222B2E
:10464000FAD9222D01D03A2DF6D1D4F80F30736269
:10465000B4F817303385D4F81930C6F83E30637F8C
:1046600003F01F0386F84230052106F13E000BF0EF
:10467000CBFC96F8433000F03F0060F305030128BF
:1046800086F84330D8D9D6F888310022C3F8A02064
:10469000617F96F84500490901238B4063F3471079
:1046A00086F84500637996F84410DB0863F304014B
:1046B00086F84410A17996F84430490961F347130C
:1046C00086F84430A07996F8453060F3040386F804
:1046D0004530207AE37943EA0023607A86F848304F
:1046E0001B0A86F8493096F84A3000F00F0023F094
:1046F0000F03034386F84A3096F84B30607B23F073
:104700000F0343EA101386F84B3096F84A3000F056
:104710000F0003F00F0343EA001386F84A30607A73
:1047200096F84B30000960F3071386F84B30DBB284
:104730000F2B96F8533098BF114661F3071386F894
:104740005330A37AE17A43EA0123217B86F84C3087
:104750001B0A86F84D3096F84E3001F00F0123F019
:104760000F030B4386F84E30237B96F84F101B093E
:1047700063F3071186F84F10217DE37C43EA0123A0
:10478000617D86F850301B0A86F8513096F8523019
:1047900001F00F0123F00F030B4396F83C1086F84D
:1047A0005230A37FB36362F3060186F83C10E27FC8
:1047B00043EA0223CAB26FF3060286F83C20B363D1
:1047C00094F8202043EA024396F83C20B3636FF349
:1047D000060286F83C2094F8212043EA0263B36382
:1047E00096F83C306FF3060386F83C3094F82220AC
:1047F000DBB262F30603180686F83C3000F17281E2
:1048000096F83C306FF3C71386F83C301C23A6F8AB
:1048100070317022002106F190003AF0ADFB0021CA
:10482000702206F580703AF0A7FB2379E2785B00EE
:1048300043EAD213627902F0070243EA422340F2CC
:10484000E24813FB08F87385B6F88C3142F2107217
:1048500002FB0383013BB3FBF8F39BB2A6F88E3156
:10486000D6F8883193F8289028F0F6FEC9F3C209EB
:104870000546484628F0F2FE2B1808FB03F3B84A19
:1048800096F8450003F5742303F23F23A2FB0323AC
:104890009B0CC6F874314FEA5803963BC6F8783142
:1048A000E37813F0400F0CBF1E234FF49673C6F845
:1048B00084310121400928F0ADFCE378A4787969BE
:1048C00003F03F0344EA0324D6F8843103FB04F4E5
:1048D000B6F88C30012B00F23981A24A12F833501D
:1048E000002D40F03381A04DD5F88851002D00F007
:1048F0002D8102EBC30396F84FC096F84450A1F106
:104900003002597896F853306D094FEA1C1C1B0988
:1049100001390CFB053301FB03F3D6F88811B56CA4
:1049200091F8271001F00701C5F31305032905FBD2
:10493000032297F8213040F2CF80B97EC1F3800185
:10494000DB0049002B3301318B4003F5BC73144469
:10495000241A96F84520D6F87451E41A96F83C309B
:1049600000215B097160F1607F2A4FF03101B16075
:1049700003F00403A8EB05054FEA521140F2A580AD
:104980009B0103F58543103300F205301844DFF82E
:10499000DCA1774B0721E0FB0A3118466EA3D3E96F
:1049A0000023FBF7ADFB20F07F406BA3D3E900238E
:1049B0003061A4FB0A01FBF7A3FB3B6920F07F48B1
:1049C000493B03EB08090DF031F800F118014846A6
:1049D0000DF02EF8010223D596F84400B16BD6F8FD
:1049E000743196F83C2040090918B163D6F880115B
:1049F0001944A5EB030303EB0400C2F3060343F1E0
:104A0000000363F30602C6F8801186F83C20A0FB81
:104A10000A0151A3D3E90023FBF772FB20F07F4882
:104A2000544B5548D8605049504C4FF4E8723046CA
:104A30000BF004F9A5FB044947A3D3E90023824600
:104A400049462046FBF75CFB3B6906960AF11207D4
:104A5000A3F1490A33690493484B20F07F45A5FB35
:104A60000331E01A464B0793464B05934FF007027C
:104A70004FF40C7302FB051108934FF6FF7369EBBB
:104A8000010103934FF47A720023FBF739FBFFB265
:104A9000CDE90150CDF8008053463A46012100206F
:104AA0000CF0CEFD10F0FD0F3FF4C6AD364937488F
:104AB000374A40F2312338F0A8FB354840F2312123
:104AC00010B0BDE8F04737F096BF0B4403F5847390
:104AD000DB004910CB4057E70B440933DB0049109A
:104AE000CB4034E73A2D7FF48BAED4F82310D4F8C2
:104AF0002730284AC6F857100B92C6F85B300BAA2D
:104B00000CAB04F12B0106F5C97038F0C4FF80B975
:104B100096F8773043F0010386F87730D6F85B30AB
:104B2000F3670CA9102206F15F000BF08DF86DE61B
:104B3000704719491548164A4FF4DD7338F065FB84
:104B400013484FF4DD7137F056FFE1E700235B783F
:104B5000FFDE00BFAFF300808D49FD1A07000000A3
:104B600083DE1B43CCA50020C823002000CA9A3B4B
:104B70008C49FD1A14090020491003008D49FD1AC3
:104B800079EE010099ED010014FC0300C4F5030067
:104B9000780404003347494220F603000000000077
:104BA0002DE9F04F05468BB08B46012002219A4635
:104BB00014462FF00BFF00220221814601200BF04A
:104BC000D7F83B494FF4DC7228460BF037F800F178
:104BD0001306F6B2374B00953246012100200CF047
:104BE00039FE10F0FD0F0BD033493448344A40F6FB
:104BF0002F0338F00AFB324840F62F0137F0FBFE56
:104C0000304BA4FB0348204627A3D3E900234146A9
:104C1000FBF776FA2C4B20F07F47A7FB03310722E6
:104C2000E01A02FB071168EB01014FF47A720023CE
:104C3000FBF766FACDE90170CDF800B0089506954E
:104C4000296995F9394021480491214931EA240123
:104C500028BF014605911F4C07944FF6FE71039142
:104C600053463246012100200CF0EAFC10F0FD0F03
:104C70000BD011491148124A40F6440338F0C5FAE6
:104C80000F4840F6440137F0B6FEB9F1000F02D1EB
:104C90000BB0BDE8F08F0122022110460BB0BDE839
:104CA000F04F0BF065B800BF8D49FD1A07000000FA
:104CB0009825002025F9010064020400C4F50300D2
:104CC0003405040000CA9A3B8D49FD1AAD710200FB
:104CD00021780200CDF801002DE9F04F87B0CDE931
:104CE0000432BDF8442003780292BDF84820BDF894
:104CF0004080BDF84C50468EB0F82E90B0F814B1FC
:104D0000019104460392002B00F0CB80013EB6B225
:104D1000A368D4F80C71721B92B2002B009209DACE
:104D2000E168626823F0004391422CBF7F18BF18EE
:104D3000A360FF1A009A638D13FB02F39BB2B3FBCF
:104D4000F8F218FB02F080B283421FFA82FA80F078
:104D50009780C01A40F2E2425D4902FB00F0A0FBDE
:104D6000010159A3D3E90023FBF7CAF920F07F40E2
:104D70000744D94494F839304D44AD1B554440F2B2
:104D8000E246DB09E58506FB08F500F08E80226C23
:104D90000099A36CDFF838B102FB1133A36428F04B
:104DA0005BFC814694F88001C0F3420028F056FC79
:104DB000059B814406FB03F305FB09F9236509F50F
:104DC0007429444B09F23F29A3FB09394FEA99435F
:104DD00003FB0AF02364A5EB0309A36C6A080344F0
:104DE000963A934228BF1346C4E911230023C4F81E
:104DF0008831A0FB0B0134A3D3E90023FBF780F932
:104E0000049B3F1A3448A0FB0330800A06FB00F0E5
:104E10002DA3D3E90023A0FB0B01FBF771F920F0D0
:104E20007F46029BA385039BA4F898312946204620
:104E3000A4F82A801EF008FC284BA18D2B44881D65
:104E4000B3FBF5F39AB29042A4F8922102D2521A1F
:104E5000063A92B2019BA4F88E2113B10023A4F864
:104E60009A313B464A4631462046FFF799FE94F870
:104E70008C3143F0010384F88C3107B0BDE8F08F2A
:104E800008FB1231124840F2E24389B203FB01F100
:104E9000A1FB00010CA3D3E90023FBF731F93F1A72
:104EA00067E74E445E44B6B232E7049B0848A3FB72
:104EB000000105A3D3E90023FBF722F920F07F4688
:104EC000A9460136ADE700BF8D49FD1A0700000075
:104ED00000CA9A3B83DE1B435917B7D17FC3C90170
:104EE00070B5448D054640F2E24303FB04F628F01A
:104EF000B3FB95F880310446C3F3420028F0AEFBC3
:104F0000231806FB03F3104A104803F5742303F239
:104F10003F23A2FB03239B0CF41A2B64A4FB000188
:104F200007A3D3E90023FBF7EBF8D5F80C61224681
:104F3000334620F07F412846BDE87040FFF730BE81
:104F40008D49FD1A0700000083DE1B4300CA9A3B0F
:104F50002DE9F04F04460B6890F820701668D3F8DE
:104F600000A0E38CD0F8220095B015464A7CADF83D
:104F70004C30FF2AC7F3801388460C9212908DF8AC
:104F80003D3040F0118299461A4612AB93E8030077
:104F90000DF1400B1090ADF84410FF090AF1930198
:104FA000D4F800C00A915B463846CDF82CC01BF0FF
:104FB00021F90A99002840F0DF8196F8A6310A907D
:104FC00069F3410367F3000386F8A6311098BBF834
:104FD0000430C6F8AD01A6F8B131DAF89330C6F85E
:104FE000A7318B88A6F8AB31638E94F83410A97280
:104FF0002B81D4F82E306B60D4F83E30AB6105F1D4
:10500000180094F84230037105210AF0FDFF6B7F10
:1050100000F03F0060F305036B7794F84330C3F36F
:105020000401A977218FE981012803F01F0389B2C8
:1050300040F2A2811B3303F01F030B2B00F29C8173
:105040000A9A002900F09881D8F800305A60638FDE
:105050002B82E989DAF8442040F2E24303FB01F7AE
:10506000E18E0A91002A00F014829AF8251040F689
:10507000C41240F6A6637F2988BF1A460D9200210C
:1050800030461EF0F5FA94F8433096F880215B091B
:1050900063F3430286F8802128F0DEFA814696F811
:1050A0008001C0F3420028F0D9FA09EB000307FBA6
:1050B00003F3CF4A03F5742303F23F23A2FB032338
:1050C0009B0C6B627B08963BAB6294F8353040F2E8
:1050D000E24202FB03F3AB63A38FA6F89831394693
:1050E00030461EF0B1FA0DF13E0023F0BFFFBDF8CF
:1050F0003E20C04B40F2712101FB02F2C6F89C2118
:105100003B44B3FBF7F39AB2A6F89221298A881D93
:10511000824204DDC1F57F41FA310A4492B2A6F819
:105120008E216B68C6F88431DAF84430002B00F029
:10513000AB814FF00109E20700F170814FF48073F9
:1051400023849AF8270027F07DFA04F12F03002822
:1051500000F03F81A26AC4F82F20A28D9A800C9B98
:10516000FF2B00F03A81BDF84C301298A4F82D3096
:10517000C4F82900BBF80430A4F8273010989DF833
:105180003D30C4F8230084F82230EB89E3862B8A73
:105190002387B6F89831638796F88031C3F34203CA
:1051A00084F83C3030461AF0F5FB0823A881E080F3
:1051B00085F8B63021460B98D8F804400DF00AFC6B
:1051C000AB89E3801C23D4F800B02371B9F1000F40
:1051D00040F02F8184F8209014F0DAF8002840F095
:1051E0003981214658460DF005FC95F85B00B5F86D
:1051F0005040B5F85290012100F0070028F00AF85D
:10520000A14409F29F39814404467B4A7B48072127
:10521000E9FB002131234FF000091046B360C6F8C6
:10522000049071A3D3E90023C6F80C90FAF768FF45
:1052300020F07F403061D8F80C300A996D6A40F256
:10524000E24202FB01310D9B303919440C1B4A46E6
:10525000022101200AF08CFDDAF844307D1BA3B155
:105260001F68384615F0D8FB421D654B0097D2B237
:10527000484601210CF0EEFA012800F02B8197F846
:1052800052306FF3000387F85230504614F0D0FCD0
:1052900007465A4854A3D3E90023A4FB0001FAF7B8
:1052A0002FFFCDF804A0D8F808305549009120F020
:1052B0007F4BBA1C493BD2B25B44012100200CF069
:1052C0000BFB012800F0F4809AF82430DB0700F192
:1052D000B98030461AF05EFB484BA5FB03590446E3
:1052E00041A3D3E9002328464946FAF709FFD8F835
:1052F0000830444A0792A3F14908434B069620F030
:105300007F47A7FB0331E81A404B059340F2D113C6
:10531000089333694FF0000ACDE903A34FF0070368
:1053200003FB071169EB01014FF47A720023FAF7CE
:10533000E7FE1334E4B2CDE90170CDF800B0434686
:105340002246012150460CF07BF910F0FD0F0BD0E6
:105350002F493048304A4FF4E97337F056FF2E4852
:105360004FF4E97137F047FB0122022110460AF0A1
:10537000FFFC15B0BDE8F08F0022CAF8142095F8A4
:1053800020300B9862F3000385F82030E568012691
:10539000214626710DF01EFB28682E7129460DF05E
:1053A00029FB15B0BDE8F08F0DF1400B10460DF153
:1053B0003D015A4626F05CF99DF83D9094F8207026
:1053C00009F102095FFA89F98DF83D9009F00102AF
:1053D000E3E5C4F82F009880C1E60022C4F8292034
:1053E000A4F82D20C6E600BF8D49FD1A0700000075
:1053F00083DE1B437FC3C9018C49FD1A00CA9A3B57
:1054000071710200417102008D49FD1AAD710200F7
:1054100064020400C4F50300100B04003649374849
:10542000374AF82337F0F1FE3548F82137F0E3FA30
:1054300084E66B7F43F040036B77281D25F088FDE1
:10544000E883C7E6002301220093184611460CF0BA
:1054500001FA3EE7214658460DF0BCFADAF8404022
:105460005046D4F800B014F0E3FB5FFA80F9B9F1CC
:10547000020F10D800231222A4F806902372227182
:10548000AA8962816372ACE694F82030C3F34019B4
:1054900051E60D93F3E51B491848194A4FF4A673DA
:1054A00037F0B3FE16484FF4A67137F0A4FAE1E7DF
:1054B0000DF046FB82453FF407AF13490F48104AF1
:1054C00040F2792337F0A1FE0D4840F2792137F000
:1054D00092FAF9E60DF034FB87423FF4D0AE0A4968
:1054E0000648074A40F2792337F08FFE044840F21D
:1054F000792137F080FAC2E6D8FA0300C4F5030038
:10550000100B040008FC03006C0B040000000000FA
:1055100010B582B000230DF107018DF8073021F09E
:1055200017FF88B1036904460B480721A3FB00025B
:1055300001FB032106A3D3E90023FAF7E1FD00F103
:10554000400120461EF0BEFB9DF8070002B010BDD2
:1055500000CA9A3B000000008D49FD1A00000000BF
:105560002DE9F0438BB089461446054623F042FCF2
:1055700000F12306F6B200202D4B009032460121A7
:105580000CF068F910F0FD0F0BD02A492A482B4A7D
:105590004FF4B67337F039FE28484FF4B67137F040
:1055A0002AFA274FA4FB07471FA3D3E9002320466D
:1055B0003946FAF7A5FD234A069520F07F45A5FB5D
:1055C0000221072303FB0511194B0793A01A1E4B59
:1055D00005934FF0000867EB01014FF47A72002346
:1055E000CDE90388CDF82080FAF78AFD0095CDE952
:1055F00001504B463246012140460CF021F810F094
:10560000FD0F0ED00B490C480C4A40F27B1337F0CB
:10561000FCFD0A4840F27B110BB0BDE8F04337F0C7
:10562000EAB90BB0BDE8F0838D49FD1A0700000010
:105630002173020064020400C4F503009C0B040003
:1056400000CA9A3B8D49FD1A159502000000000022
:105650002DE9F04F8DB0CDE90701CDE903320020EF
:10566000BDF868309DF85C80BDF86090BDF864A01E
:105670009DF86CB0069318F0D7F8002800F0AE80C3
:1056800008F00107044638460CF094FA05902FB153
:1056900006210AF0E7FA002800F0AA80169B039A78
:1056A000059938461AF0A6FD002840F093800120A5
:1056B00018F0BAF80646002800F090801BF0040F9E
:1056C00000F09080036A002B00F0978006F11C0523
:1056D00095F820306BF3020385F820306B68002BBF
:1056E00000F0A080D5F804B0039BDBF8004003F085
:1056F00001099BF85A00C0F3C00100F0070027F031
:1057000087FD95F8202002F00702032A03467AD885
:1057100002F12801C9005210D140BBF850208A4242
:1057200038BF0A46ABF8502095F8201001F0070169
:10573000032965D801F12800C0004910C840BBF812
:105740005210814238BF01460A4403F29F3313448A
:10575000BD48BE4AABF852100721E3FB00211046BA
:10576000B7A3D3E90023FAF7CBFC20F07F402061F8
:10577000049C204626F094FC2B8C03F07F0363F0FE
:10578000FF032B84002C41D0A8F10203012B40F22F
:10579000378196F85A1068F3830186F85A1095F805
:1057A000201069F3861185F8201016990968A96000
:1057B00016998988A9810699A98204990091DDE941
:1057C000072328460021FDF75BFE306500200DB061
:1057D000BDE8F08F0B200DB0BDE8F08F0C200DB0B0
:1057E000BDE8F08F236A2BB104F11C0526466FE754
:1057F0001220F0E7036A2362F6E7236A036265E793
:105800004FF429609BE74FF4296186E727F0B8F849
:105810000028B9D0DDE90302169926F0E3FD85F8EA
:105820002100B1E70DF0BEF80990002800F00681D4
:105830001AF0A4F80446002800F0FD8020300AF099
:10584000F7FB04F11C0B002840F0E580032104F174
:10585000240027F05FFBD4F88800A4F82CA04FF6B2
:10586000FF73A4F82A902385002800F0DF8004F15C
:105870007C0204F178010AF011FAB4F8763023F4CE
:10588000EF6323F0070343F4887343F00103A4F8A4
:10589000763094F88E304FF0000A23F00703012190
:1058A00084F88E302046C4F888A0A4F88CA01BF0A1
:1058B000A9FA7F2384F8D130082384F8D230C4F8C1
:1058C0002EA0A4F832A004F1340025F0EBFA94F8ED
:1058D000393060F30503012184F839300DF12F00D0
:1058E00027F018FB069B9DF82F20A4F89831584B01
:1058F00084F83BA0A3FB0213DB0803EB4303A2EBFA
:10590000830294F83930A18DA4F89AA103F03F03E3
:1059100084F8393094F83C30A4F890A1053223F093
:10592000030384F83A2084F83C3040F2E242494BC9
:1059300002FB09F94FF4C0224B44C4F89421881D9E
:10594000B3FBF9F39AB28242A4F8922102DD063A3F
:10595000521A92B2A4F88E2120461DF0FFFD49464E
:1059600020461DF071FE4FF0000A099BC4F8583123
:1059700084F850A11AF032FC94F8A03160F30203CD
:1059800084F8A0311AF030FC94F8A03160F3C5031C
:1059900084F8A03194F88C316AF3410384F88C3197
:1059A00004F1D4001DF058FB039A94F8A631C4F812
:1059B00004A002F0010969F3410384F8A631312300
:1059C000A360169BC4F80CA01B68169AC4F8AD31EE
:1059D00094F8A6319288A4F8B12168F30003059ADF
:1059E00084F8A6311368C4F8A7319388A4F8AB31C2
:1059F000C5F804B0C4E905AA84F800A0E46178E61B
:105A0000002026F071FB95F8203043F08003B84663
:105A100085F82030BDE610491048114AC12337F0FF
:105A2000F4FB0F48C12136F0E6FF0FE704F18000D8
:105A3000C4F888001BE709980CF0BAFF0720CAE6F3
:105A40008D49FD1A0700000000CA9A3B8C49FD1AD7
:105A5000ABAAAAAA7FC3C90120F60300C4F50300BC
:105A6000080C0400000000002DE9F04F05468FB03F
:105A700090F82070AB8D806AADF83430EB07C7F337
:105A8000C0180C461646C7F340170C9000F12F8142
:105A900000232B84A37C607C13F001031CBFD5F88A
:105AA0002230C5F82F3005F12F0214BFEB8CC5F85A
:105AB0002F30FF28938005F1290905F1230240F0DA
:105AC00005810023BDF834100C98C5F82930A9F8D9
:105AD000043085F82280C5F8230091802368D3F82C
