:020000040000FA
:10000000C03F0020852A0000379C0000592A0000CC
:10001000592A0000592A0000592A0000592A0000D4
:10002000000000000000000000000000B1260000F9
:10003000592A00000000000049260000592A00004B
:100040003D2700003D2700003D2700003D27000020
:100050003D2700003D2700003D2700003D27000010
:100060003D2700003D2700003D2700003D27000000
:100070003D2700003D2700003D2700003D270000F0
:100080003D2700003D2700003D2700003D270000E0
:100090003D2700003D2700003D2700003D270000D0
:1000A0003D2700003D2700003D2700003D270000C0
:1000B0003D2700003D2700003D2700003D270000B0
:1000C0003D2700003D2700003D2700003D270000A0
:1000D0003D2700003D2700003D2700003D27000090
:1000E0003D2700003D2700003D2700003D27000080
:1000F0003D2700003D2700003D2700003D27000070
:100100003D2700003D2700003D2700003D2700005F
:100110003D2700003D2700003D2700003D2700004F
:100120003D2700003D2700003D2700003D2700003F
:100130003D2700003D2700003D2700003D2700002F
:100140003D2700003D2700003D2700003D2700001F
:100150003D27000053B94AB9002908BF00281CBF39
:100160004FF0FF314FF0FF3000F00CB8ADF1080C4C
:100170006DE904CE00F008F8DDF804E0DDE90223C3
:1001800004B07047704700BF2DE9F04786468C46A3
:100190000846089E154674461946002B40F0C1805B
:1001A0008542B2FA82F245D94AB1C2F1200300FA7F
:1001B00002FC954094402EFA03F343EA0C0C4FEAFC
:1001C000154EA8B2230CBCFBFEF80EFB18CC08FBA6
:1001D00000F943EA0C43994528D9EB1808F1FF3799
:1001E00004D2994502D9A8F102072B44A3EB0903D5
:1001F000A4B2B3FBFEFC0EFB1C330CFB00F044EA84
:100200000344A04214D92C190CF1FF3304D2A042AC
:1002100002D9ACF102032C44241A43EA07401EB170
:10022000D440002334607360BDE8F0874746DDE7C3
:100230006346F1E792BB431B01214FEA154EAFB273
:10024000200CB3FBFEFC0EFB1C330CFB07F840EA52
:100250000343984561D9EB180CF1FF3004D298455F
:1002600002D9ACF102002B44A3EB0803A4B2B3FB08
:10027000FEFC0EFB1C330CFB07F744EA0344A742C9
:100280004DD92C190CF1FF3304D2A74202D9ACF19D
:1002900002032C44E41B43EA0040C0E7C2F1200300
:1002A0009540944020FA03F12EFA03F34FEA154EDD
:1002B0009040AFB20343B1FBFEFC0EFB1C10190CC7
:1002C0000CFB07F841EA0041884522D969180CF176
:1002D000FF3004D2884502D9ACF102002944A1EBD9
:1002E00008019BB2B1FBFEFC0EFB1C110CFB07F7D7
:1002F00043EA01439F420ED9EB180CF1FF3104D2BF
:100300009F4202D9ACF102012B44DB1B41EA0041C0
:1003100093E76046E3E76146F7E76046A4E7634694
:10032000B8E7834206D916B9002108467CE7C6E93A
:1003300000E0F9E7B3FA83F78FB9834201D372453E
:1003400008D8BEEB020460EB030301209C461EB9F3
:10035000002169E73846FAE7C6E9004CF8E7C7F13B
:10036000200CBB400EFA07F522FA0CF42EFA0CF121
:10037000BA401C4320FA0CF3B8404FEA1449014339
:100380001FFA84FEB3FBF9F809FB18300B0C08FBCD
:100390000EFA43EA00439A4540D9E31808F1FF30CA
:1003A00004D29A4502D9A8F102002344A3EB0A0320
:1003B00089B2B3FBF9F809FB183308FB0EFE41EADA
:1003C00003418E452CD9611808F1FF3304D28E45C4
:1003D00002D9A8F10203214443EA0040A1EB0E0137
:1003E000A0FB02984145CE46434602D306D14D4577
:1003F00004D20138B9EB020E68EB0403002EA7D03B
:10040000B5EB0E0261EB030101FA0CFC22FA07F3D3
:10041000F9404CEA0303C6E9003199E74046C5E7D5
:100420004346D9E710F8012B11F8013B012A28BFF8
:100430009A42F7D0D01A7047034613F8012B002ACE
:10044000FBD1181A0138704738B5094D4FF0FF320B
:100450004FF0FF33284609F028FC044602F002FE64
:1004600010B1204602F0BCFE07F01CFDEEE700BF15
:1004700098030020034883685B6A03B118476FF054
:1004800057007047B0BD0000024883681B6A03B183
:1004900018477047B0BD000010B4034606480A462E
:1004A00081688C691CB11946234610BC18476FF04F
:1004B000570010BC704700BFB0BD000038B5002029
:1004C00001F0F2F9044618B16FF01504204638BD6A
:1004D0000D4D28460AF0B4FF0028F5D0AB68DB6A62
:1004E0000BB128469847FFF7CFFFAB682BB19B6C49
:1004F0001BB10022054904489847AB689B6A002B52
:10050000E4D001489847E1E7B0BD000011050000C4
:100510002DE9F04F654D8DB0AE68736B23B1284661
:10052000984708B9FFF7A6FFFFF7A4FF58B1604C42
:100530002368A3B9002200235E4809F0B6FB2060BF
:1005400068B9FFF7A1FFAB685B6BFBB95A4F5B4D16
:100550003B78032B1ED8DFE803F02033829B23680F
:10056000D9681A8A736973B1504898470146206860
:100570000C3009F0B4FB2068068A002EE3D102F0AB
:100580002FFE2660DFE76FF05701F0E747489847F6
:100590000028DBD10DB0BDE8F08F494C0121204689
:1005A000FFF77AFF0028F5D02078431E012B01D9F0
:1005B0000528CDD108F044FB012328603B70C7E734
:1005C000DFF8FCB0DFF8FCA09BF8000008F038FB77
:1005D0002968401A5044FFF75FFF2B6804461E1A33
:1005E0002E60002E50D101230022CDE900B3062059
:1005F000002302F0D1FCDFF8D0908046C9F800005B
:1006000008B93870C6E79BF80000022822D00528F8
:100610001BD0012801D19AF802602E6008F010FB6F
:100620002849024608F10C0009F047FBD9F8000000
:100630000C3009F05CFB2B6898420ED2D9F8000010
:1006400002F0CEFD03233B701EE0BAF80230C3F384
:100650000D06E2E7BAF80260DFE70223F3E71A4E7D
:10066000296833681A8AD8681044FFF715FF316883
:100670002E680B8A361A034404460B822E601EB97C
:10068000124809F014FB3E70002C7FF461AF81E743
:10069000296803A8212928BF2121FFF7FDFE2B6827
:1006A00004461B1A2B60002BEED1CCE7B0BD000036
:1006B000580C0020B003002039220020540C0020E8
:1006C0003822002034220020500C00209803002003
:1006D00070B5184888B002F0CFFC00220023CDE9A5
:1006E000062300236FF00802CDE90133CDE903238F
:1006F00000934FF48062104B1049114806F03CFE05
:1007000010490F480AF063FF0A4D0F4E0F4C4FF08F
:10071000FF324FF0FF33284609F0C7FA0146304652
:1007200009F0C5FAA368DB69002BF0D02046984792
:10073000EDE700BF80030020490400008022002074
:1007400040050020E8C40000B0030020B0BD000058
:10075000014B1B68184700BFB000002030B585B0C2
:1007600004460D461022002168460BF038FA022399
:100770008DF80230044B2A4621466846019308F062
:1007800019F805B030BD00BF5107000080B505461F
:100790000E461746984607F03BFC03460BF084FADA
:1007A0000446DFF81890424649F800303946304692
:1007B000A84754F8090002F0DFF900BF0800000064
:1007C0002DE9F047058B04462807904611D40229ED
:1007D00005F0070540F0CD80204608F013FD78B104
:1007E0000138218B042811D8DFE800F0C3106D8593
:1007F000950001290CBF45F0100545F02005258323
:1008000088F31188BFF36F8FBDE8F08701F0070A06
:10081000AA4500F0A6800027B9463E46A368002BF3
:1008200000F0BD8041F00801218388F31188BFF3F7
:100830006F8FA168002900F0BB800D68002900F0CF
:10084000B780334652462046D1F80480C047002D79
:1008500076D02B6829461D46F0E701F007035A1FA2
:10086000012A1BD8002221F00701062B276889B234
:10087000C4E9002209D13B4603E0628B0132628366
:100880001B68002BF9D141F002012046218308F0BA
:10089000B9FC00287BD041F0200177E0042B0AD17D
:1008A00021F0070189B22046218308F0ABFC10B18A
:1008B00041F020012183218B01F0070AAA4550D085
:1008C0000027B946AAE7236921F0070141F0060194
:1008D000062DD3F8009021832DD1B9F1000F40D01F
:1008E00041F00801218388F31188BFF36F8F204600
:1008F0003949C84729E021F00701236941F0040183
:1009000089B2042DD3F804902183E6D000274FF05C
:10091000040A3E4682E721F00701236941F0050100
:1009200089B2052DD3F808902183D6D000274FF047
:10093000050A3E4672E700274FF0060A3E466DE77D
:100940002B4687E7B9F1000FD1D14FF02003EFF329
:10095000118883F31288BFF36F8F238B23F0080372
:100960002383258BEA062ED525F01003238305F07B
:1009700007056669218B002EBFF66FAF002327683D
:10098000C4E9003321F0070141F001012183218BEB
:100990004FF0000901F0070AAA457FF43FAF002F8E
:1009A0009BD041F00801218388F31188BFF36F8F3A
:1009B000002FC7D03D68394633465246204608F0DE
:1009C0004DFC2F46F4E7AB067FF51AAF25F0200368
:1009D000238305F00705FFE689920000044608B569
:1009E0004FF02002EFF3118382F31288BFF36F8F71
:1009F00004F070F9204602F075F8034808F02DF96C
:100A000001F07CFDFCE700BF0EC5000000F01F02F6
:100A100040090DD001280DD1094B03EB8203D3F817
:100A2000002222F0E04242EA0171C3F8001270474E
:100A3000044BF2E70023803253F82230FFDE00BF80
:100A4000002884500025845038B50124134B144DE0
:100A5000C3F8004502230321C5F8D0360020FFF774
:100A6000D5FF20460321FFF7D1FFC5F804472146F3
:100A7000C5F804492120C5F8004BFFF7C7FF214600
:100A80002020FFF7C3FF21460B20FFF7BFFF2146C1
:100A90000A20FFF7BBFF002038BD00BF0010005048
:100AA0000040005007B50DF1070009F046FD114B5D
:100AB00098421CD14FF480620F4B1049C3F8B825FF
:100AC0004FF40062C3F83C259DF8070009F029FDAA
:100AD0000B499DF8070009F01FFD01209DF8073024
:100AE000984004F03FFA002003B05DF804FB6FF07B
:100AF0000B00F9E70000AD0B00A002502CA0025043
:100B000028A10250052370B5144D154E2C780134E0
:100B1000B4FBF3F303EB8303E41A09F0E7FC114A97
:100B2000137823B156F82430C01A072814D94FF08F
:100B30005023D3F8141141B10021C3F81411D3F894
:100B400014312C700CB9012313702C7809F0CEFCF1
:100B500046F82400012070BD0020FCE73B22002065
:100B60005C0C00203A22002048B1054B054A1B6866
:100B7000B3FBF2F35843044B43F0010318477047AB
:100B8000AC01002040420F0010C1000004F0CCB8BE
:100B90000020014B186070470000072030B50C465C
:100BA0000E4985B00291D0F8AC110546CDE900316F
:100BB00000F1E0014FF0FF33204606F025F850B970
:100BC000012384F86430D5F8A83123B1204605B05C
:100BD000BDE83040184705B030BD00BF03970000A6
:100BE00038B50C461146054608F08DFD034638B968
:100BF0002846044908F087FD03460020236038BDDD
:100C00000120FBE74FC800002DE9F04F012381468A
:100C10000569466885B005F55977D7E8EF2F002AB2
:100C200003D1C7E8E13F0029F7D10CBF1A460022E3
:100C300040F0B180B368B16A05F5E4781C1F104636
:100C400008F0E6FD84425FD8013A00F09E80B2FAD7
:100C500082F24FF00044D44072682046073222F0FE
:100C60000302C5F86022B16A08F0D2FDC5F864023B
:100C7000B36A40466343033323F0030302EB4302AA
:100C8000230103EB4403093323F0030303EBC40301
:100C9000C5F858221A440832C5F854227368C5F8BA
:100CA0005C42C5F850323D4BC5E9A963316800F09C
:100CB000BDF9044630BBD9F804A0D9F81090DAE9A0
:100CC000073409F5307B012B584608BF103C0AF069
:100CD00094FD0023DAF8240031494FF4806201EBDF
:100CE000802100935846234606F0FCFD09F52C7040
:100CF0002C490AF054FDDAF8140083685C682CB9BA
:100D00006FF05704002139E0013298E74B46264A3C
:100D1000DAF81810A04704460028F3D1DAF81400D6
:100D200083681B69002BEBD00122DAF81810984772
:100D300004460028E6D11D4B2846C5F8A8311C4BB7
:100D4000C5F8AC311B4B0393D5F810320293D5F89C
:100D50000832CDE90083D5F86832B26AD5F860135D
:100D600000F02CF904460028CCD105F1E00005F094
:100D7000F9FF0028C5F868030ADB0221384608F0AD
:100D8000F7FC204605B0BDE8F08F6FF00B04B9E723
:100D90006FF01504B6E76FF07704F2E7599700009B
:100DA000802600203F97000033970000B90D000017
:100DB000E7980000A197000013B5044640B1002356
:100DC0000122CDE90032074BD0E9091205F0D0FE2F
:100DD000A36E1B6823B1E06E02B0BDE81040184757
:100DE00002B010BD4FC8000013B504460846216983
:100DF00001F55971D1E8AF1F022910D193B1A0B10B
:100E00000121CDE900311346D0E9091205F0B0FE09
:100E1000074B984208BF6FF00B0002B010BD6FF097
:100E20000F00FAE76FF04C00F7E76FF00100F4E70E
:100E30002EF8FFFF2DE9F74388461546066906F5AB
:100E40005973D3E8AF3F022B5FD1136823B96FF01A
:100E5000150003B0BDE8F0831B78002BF7D0D6F85F
:100E60006093B9F1000F33D106F5D8774FF0FF3218
:100E70004FF0FF33384606F007FB30462A6801A9D9
:100E8000FFF7AEFE019C1CB9384608F06FFCDEE7A8
:100E900005F10803A3666B6984F86490E366E46374
:100EA00060B1384608F062FC21463046236E2A685D
:100EB000FFF774FE0020C8F80040CAE72022296826
:100EC00004F140000AF0B8FE384608F04FFCF1E7A4
:100ED00030460F4908F017FC04460028B7D005F14A
:100EE000080383666B69C063C366002380F86430BF
:100EF0002022296840300AF09FFE22460121304618
:100F000000F03EF80028D5D0A1E76FF00F00A0E771
:100F10004FC800002DE9F04F05460E4690460027C9
:100F2000D0F8B0A085B0AAF5AE7421463046FFF7E0
:100F300079FAE0B9114BA4F1400B0293DAF81030C2
:100F40003246CDE9008329464FF0FF335846AAF5D3
:100F5000CE7905F059FE60B97023012203FB079397
:100F600083F86420DAF80C300BB158469847703497
:100F700017B105B0BDE8F08F0127D6E74999000009
:100F80001FB5144690B18AB1012912D10A4B00F164
:100F9000E0010293D0F8AC31403201934FF0FF33BF
:100FA0002046009305F030FE04B010BD6FF0150030
:100FB000FAE70020F8E700BF499900002DE9F04367
:100FC00087B00E46DDE90E811446DDE910251F4687
:100FD00030B329B3DFF850C000F1E009002D08BF9D
:100FE00065469EB9CDE9034400F5CE7420460596CA
:100FF0000AF00CFA03ABCDE900432A463B464146D2
:10100000484605F0D5FE07B0BDE8F0830022414612
:101010000E9248462A4607B0BDE8F04305F0F2BFFD
:101020006FF01500EFE700BF150F0000F0B50E469A
:10103000044689B000286FD001230246C363002311
:10104000D0F89810364F403040F80C7C42F8301FF2
:10105000CDE901334FF0FF330093C36D09F096FCE7
:10106000304A06AB92E8030083E80300184605F017
:1010700091FC0546D8B904F1340005F06DFC054635
:10108000A8B93946284805AA09F05CFC054670B99C
:10109000059B9A6872B10C33D4F89400C4F8A03060
:1010A00008F083FCC4F8D40030B96FF00B05284673
:1010B00009B0F0BD0346EFE7D4F8940008F075FCE2
:1010C000C4F8D8000028F0D0D4F88C30D4F8A010A0
:1010D000C4F8A8300423C4F8AC30C4F8C4300223E8
:1010E000A362124BB4F89420D4F8D470C4F8B810AA
:1010F000C4F8D010D4F89010236204F1A403A4F82B
:10110000B020C4F8A470C4F8C010A4F8C820C4F873
:10111000BC00A661E362CAE76FF01505C7E700BF30
:101120004CC50000F0C0000056C5000044C10000DE
:10113000F0B40C4B0C4E5F6A0C4BB34203D36FF010
:101140008500F0BC70475D68BD4209D31C693CB1A5
:1011500095F802C00579AC4502D12346F0BC18478A
:101160002433EAE7700C00203C050020180500201D
:101170002DE9F04705460E461746124CDFF8488029
:10118000DFF84890444503D36FF08500BDE8F08751
:101190006268D9F824309A4212D3A36983B1907857
:1011A0002979884205D13A4631462846BDE8F047BC
:1011B00018475279012A03D13A46314628469847C2
:1011C0002434DFE7180500203C050020700C0020C7
:1011D0002DE9F04105460E4617460A4CDFF82880F7
:1011E000444502D36FF0850009E063690BB92434EC
:1011F000F6E73A463146284698470028F7D1BDE839
:10120000F08100BF180500203C05002010B5044601
:1012100008F0A4FD10F1780F00D050B9204608F076
:1012200002FC044AD2F8C43023EA00030020C2F8CA
:10123000C43010BD700C00200022024B1A605A60AE
:10124000704700BF2B0D002070B50B4B0B4CA34219
:1012500001D3002070BD0022196A1E7F0439D5B267
:10126000AE4201D82433F2E7013211F83250854200
:10127000F5D10120EEE700BF180500203C05002055
:1012800008B509480378C3F341130A3350F82330F3
:101290003BB100F1080200F110019847C043C00FB4
:1012A00008BD1846FCE700BF700C002004282DE99B
:1012B000F14F04460F46DFF8949016D001282DD147
:1012C000DFF88C8098F8B93043B300F003FE214D6D
:1012D0004D4520D24FF0000AD5F820B02B7F5FFAA1
:1012E0008AF6B34204D82435F2E7FFF7A5FFE7E713
:1012F0000BEBC606307908F031FD0246307908F074
:1013000092FBD8F8C430002A23EA0003C8F8C4309E
:101310000AF1010AE2DA002388F8B9300D4D4D4593
:1013200008D30B4B1B6A6BB13946204601B0BDE8B0
:10133000F04F1847EB681BB13A46214628469847BC
:101340002435ECE701B0BDE8F08F00BF3C0500207C
:10135000700C00201805002073B5C4B263060D465A
:101360008DF8074007D02046FFF76EFF78B10D4B90
:1013700093F8BA0058B120460A4E55B102F038FB36
:10138000F3691BB108200DF107019847012002B055
:1013900070BD02F055FBF369002BF7D009200DF169
:1013A0000701F2E7700C002073B586781E4C8DF8AB
:1013B00000600379427943EA0223ADF80230C37832
:1013C000304603F003038DF8043008F02CFBD4F80A
:1013D000C430054618420BD0304600F05DFD304663
:1013E000FFF714FF0AF0EDF810B9962006F0F6FDAD
:1013F000684602F0D9FA10F1780F03D010B100203E
:1014000002B070BD9DF8000002F056FB10F1780F9D
:1014100001D00028F3D10120D4F8C43084F8B900F9
:101420002B43C4F8C430EBE7700C00202DE9F047E3
:10143000A34E0446B3690F461546FBB9237803F063
:101440001F03012B00F09D80022B00F0048133BBB1
:1014500094F900002A680028617834DA062912D04D
:1014600008292BD0D9B901235170137096F8C330D5
:101470005B0043F00103137002232AE19847002820
:10148000DCD100200DE06288100A011F012984468A
:1014900005D9072803D8716AD2B20C781CB96FF04D
:1014A0001500BDE8F0874E78664503D19A4200F0FA
:1014B0000B8101332144F0E70B780AE196F8BA304A
:1014C0001370012305E101390829E8D801A353F875
:1014D00021F000BF6D1500009F1400007B15000077
:1014E0009F140000F91400009F1400009F140000D6
:1014F0009F14000005150000A07802F043FA0028B0
:10150000BFD0CCE76388756A63BBFFF795FE63883D
:1015100086F8BA30F369002BB3D0032069499847A5
:10152000AFE76B78042B10D0052B11D0022B04D120
:101530006F796388BB4208BF01202B781D442B784C
:10154000002BEED10028AAD0DFE795F80380F4E75E
:101550006388BB42F1D1B8F1000FEED12846FFF706
:1015600023FFEAE7FF270020B846E8E76388012B5E
:1015700095D1002386F8C33083E76388012B8ED191
:10158000F8E796F8BA30D5F800C0002B87D0756A16
:10159000A3882A4694F804E0107800283FF47FAF2F
:1015A0005178022904D192F80480F04500F293802A
:1015B0000244F1E78CF800208CF80120396060E7E4
:1015C000154494E00B2A7FF46AAF00274FF0FF0820
:1015D000BA46C14606E06B78042B0FD0052B21D00C
:1015E0002B781D442B78002BF5D1F36913B15146AC
:1015F00007209847002F7FF444AF50E795F802800A
:10160000A38895F803909845EAD163889945E7D176
:10161000B8F1070F1CD806EB0803AA46012783F888
:10162000BB90DDE7A3884345DAD1A3784B450AD0C8
:10163000AF78384600F030FC3846FFF7E7FDB0FAE7
:1016400080F77F09CCE72846FFF7AEFE0746C7E7DD
:10165000AA460027C4E794F900206378002A18DA24
:10166000002B7FF41CAF24792D6863060AD0204636
:10167000FFF7EAFD00283FF412AF96F8BA30002BCE
:101680003FF40DAF2946204602F0FAF900236B70B3
:10169000F2E6012B08D0032B7FF401AF6388002B07
:1016A0007FF4FDAE012103E0618800297FF4F7AEED
:1016B000A088FFF751FE00287FF4E3AEEFE600BFFD
:1016C000700C00202A0D0020022829607FF4F4AE5F
:1016D0004B883B60D5E694F9000062780028BFF69D
:1016E00071AF002A3FF466AF0A2A7FF4D8AE2A7899
:1016F000002A3FF4D4AE697804297FF461AFA97859
:101700008B427FF45DAF072B8EBF00239B1993F8AC
:10171000BB308CF80030D4E613B5164C237DF3B9FA
:10172000E26801AB8020A168019208F08BF9019A70
:10173000A3681344A360E3689B1AE3606BB962B1CA
:101740002369E2889A4208DD94F8C82093FBF2F1FD
:1017500002FB11330BB90123237502B010BD002326
:1017600080201A461946237502B0BDE8104002F0E9
:10177000CDB900BF700C0020002330B585B0024603
:101780000D460193002858D1002935D108220B4677
:101790000DEB020108F0FBFA002804DA802002F0C9
:1017A00027F905B030BD2A4C029AC4E903552260DE
:1017B000039ABDF80E30626004F13802A2609DF910
:1017C00008202575002A0ADB802B04D9802002F02E
:1017D0000FF90020E3E713B1C4E90333E1E7FFF7B2
:1017E0004FFD0028DAD0E28823699A42D4BFE26034
:1017F000E360FFF791FFD4E7154C01ABD4E9021584
:10180000002D04DC08F0C3FA0028CADAC6E72A462D
:1018100008F0BDFA0028D9DB019AA3681344A3603D
:10182000E3689B1AE360002BBBD104F13803A3608B
:10183000FFF726FD0028DCD1B0E78028B1D1044BAA
:10184000DA68002AD5D11B7D002BD2D1A9E700BFD1
:10185000700C0020054B064A58629A62054A002027
:10186000DA62054A1A63054A9A617047700C0020D3
:101870002D14000031110000D11100007111000081
:1018800010B5084B93F8B84034B900F0E3F830B124
:10189000FFF7E0FF204610BD6FF07700FBE74FF049
:1018A000FF30F8E7700C00202DE9F341414D04466C
:1018B0006F6A4FF0FF324FF0FF333F4805F0E4FD11
:1018C00095F8B860002E6ED13C482C62E86102F0B9
:1018D00037FA02F025F8041E49DB00F01FFB041E56
:1018E00045DB7B78012B61D1FB79002B5ED068460C
:1018F00085F8C830ADF802308DF804608DF80060CE
:1019000002F052F8041E32DB802768468DF8007022
:1019100002F04AF8041E2ADB3046294902F0FCF99D
:10192000041E24DB3846264902F0F6F9041E1EDBAD
:10193000244CDFF89480444520D3002002F0BCF80A
:10194000041E14DBD5F8C430802043F00103C5F831
:10195000C43002F0B1F8041E09DBD5F8C43000240D
:1019600043F48033C5F8C430012385F8B8301248F9
:1019700005F004FE204602B0BDE8F0810026276A8B
:10198000227FF3B29A4201D82434D4E707EBC30292
:1019900057F83310107902F0BFF901360028EFD064
:1019A0004FF0FF34E3E76FF07704E0E76FF01504E2
:1019B000DDE700BF700C002054030020AD120000D2
:1019C00079170000180500203C05002030B51F4B9A
:1019D0008BB005AA03F1100514461868596808333E
:1019E00003C4AB422246F7D11B781022237000219A
:1019F00001A80AF0F4F81222002115480AF0EFF8C5
:101A0000102101A808F053FB00281BDD0828B8BFEF
:101A1000082001AB09381A1800200D4912F8013FBF
:101A20000AAC04EB131403F00F0328336B4414F8CF
:101A3000144C13F8143C013008280C704B7001F161
:101A40000201EBD102480BB030BD00BF69C50000F8
:101A50003C2200202DE9F04F4FF0000B6E4C87B078
:101A600000264FF0011AB0463546B14623782BB90F
:101A70006A4B02349C42F3D1674833E06378052B0C
:101A80001BD8DFE803F08E03C68E1D3B402304A85D
:101A90008DF810B0ADF812308DF814B008F046F99A
:101AA00040B1082304A8ADF8123008F03FF908B19E
:101AB000ADF812B0BDF81230E37123781C44D5E7BD
:101AC000E378002BF9D1A3787BB108F101085FFA24
:101AD00088F8F2E76B689C4209D02435504B9D4250
:101AE000F8D3002007B0BDE8F08F4E4DF6E7AB68A5
:101AF000002BEAD0414620469847E6E7002DF0D07B
:101B000000222B7F9A42ECD2296AA07801EBC20115
:101B10000B79984201D00132F3E70127E078FBB25C
:101B200000F003008DF81400207994F805C040EA15
:101B30000C20ADF8120094F90200002826DA4FF0CC
:101B4000010C07F110000CFA00F010EA0A0F24D182
:101B500043F080008DF8100004A8CDE90213019233
:101B600008F0E4F8DDE90121039BB0B99DF81020ED
:101B700012F0800FA2700A714FF001021DBF1033E6
:101B8000DBB29A40BA404AEA020A96E70120B8401E
:101B900010EA0A0F01D11846DCE70137102FBDD13A
:101BA000B9E7032E1DD1FFF711FF074668B1FEF715
:101BB00043FC102809D13846A31C07F1100250F845
:101BC000041B904243F8041BF9D16FF00201237803
:101BD000091BE21804EB5303D14213D50136F6B2C8
:101BE0006BE7002EF1D1B9F1000F3FF47AAFA4EB0F
:101BF000090389F80230C3F3072389F8033089F811
:101C00000480EBE702F801BC13F8010902F8020DA9
:101C1000E2E7A14651E700BF640400201705002059
:101C20003C05002018050020094B00211A4610B57C
:101C30001C78844205D15C681CB1482303FB012059
:101C400010BD0131042903F14803F1D10020F7E769
:101C50003C0D00202DE9F34150F8303C0446103390
:101C600010F8346C10D1036950F8282C990739D535
:101C7000EAB913F0040304D11A461946304607F0B6
:101C8000E1FE002344F8303C54F8303C10330BD0D4
:101C900054E9097554F81C8C09F093FC00284CD0C9
:101CA00021462C4809F098FD02B0BDE8F08150F8BB
:101CB0002C1C01AB304607F0C5FE10B16FF01503C8
:101CC000E0E7019A54F82C3C134444F82C3C54F8B7
:101CD000283C9B1A44F8283C54F8243C134444F80C
:101CE000243CD1E750F82C1C01AB304601F08AFFB0
:101CF0000028E3D1019D54F82C3C2B4444F82C3CA3
:101D000054F8283C5B1B44F8283C54F8243C2B44F2
:101D100044F8243C002DB4D0304602F017F8B5FB4F
:101D2000F0F303FB1055002DABD154F8283C002BE9
:101D3000A7D0304601F0AEFFA6E744F8200CA4F18E
:101D4000180005F08BFC002DAED0424639463046D7
:101D5000A847A9E7300900204B1E012B73B50646A2
:101D60000D460FD8FFF760FF044668B9012D09D171
:101D700001AB012230460DF1030101F043FF019B4D
:101D8000002BF5D102B070BD09F01BFC04F1340149
:101D900008B1012D05D1084602B0BDE87040FFF73B
:101DA00059BF034802B0BDE8704009F015BD00BF3F
:101DB000300900202DE9F74F8046174699460091DB
:101DC00007F086FE044600285DD14FF02003EFF3B4
:101DD000118B83F31288BFF36F8F2C4900220846C2
:101DE0000023019105F060FC019968B94822624323
:101DF000DFF89CA00AEB02056E6816F1100F12D1F5
:101E0000084605F02BFC06E00134042C01F14801E2
:101E1000E4D16FF00B068BF31188BFF36F8F304660
:101E200003B0BDE8F08F0AF802800C9A009B6A614B
:101E30000D9A2861AA616FF00F024046C5E902378A
:101E4000C5F844906A6001F081FF58B1404601F046
:101E50007DFFB7FBF0F202FB10771FB16A6C42F016
:101E600004026A6419F0020F08D0482202FB04A1A0
:101E70000848343109F0B0FC0026CCE7404601F0B8
:101E800009FF0646C7E76FF00F06C8E7580D0020A8
:101E90003C0D00203009002010B54FF02003EFF377
:101EA000118483F31288BFF36F8FFFF7BDFE50B12B
:101EB0004368103307D16FF08B0300F134014360A6
:101EC000034809F089FC84F31188BFF36F8F10BDBC
:101ED0003009002070B504250E4C4FF02003EFF3BD
:101EE000118683F31288BFF36F8F6368103307D1B5
:101EF0006FF08B030848636004F1340109F06CFC57
:101F000086F31188BFF36F8F013D04F14804E4D1DB
:101F100070BD00BF3C0D00203009002070B50025C9
:101F2000094C0A4E3146204609F039FC0122A4F141
:101F300018001146013509F0F1FB042D04F14804A5
:101F4000F0D1002070BD00BF700D0020551C0000B6
:101F5000014608B5034807F0A5FD10B1012300F8BC
:101F6000073C08BD5C0E00200123016981F84B305D
:101F70000B6833B191F849301BB10248083109F0C0
:101F80002BBC7047300900200123016981F84A30D9
:101F90000B6833B191F848301BB10248083109F0A1
:101FA0001BBC70473009002038B5056995F89E00C4
:101FB00088B195F89F307BB985F84830D5F8900006
:101FC00007F07BFA044600220023044805F11801BB
:101FD00005F0FEFC204638BD0020FCE7300900205B
:101FE00013B504698DF8071094F89E30A3B194F8E6
:101FF0009F308BB90DF107010122D4F8900084F8CD
:10200000483007F05AFA014640B1212200230C481B
:1020100004F1180105F0DCFC02B010BD0122D4F877
:10202000900007F09AFA0028F6D00122D4F8900028
:102030000DF1070107F041FA0028E6D1ECE700BFF7
:1020400030090020F0B5D0F88C3005465B6885B0CB
:102050001B6A1F7D384607F03BFD0646E0B94FF48A
:102060008062A86F03A907F047FA0446A0B183066F
:10207000A5F1180385F830600193084B08BF00F103
:10208000FF3403990093224602233846FFF792FE5D
:102090002146A86F07F04CFA05B0F0BD41210000C1
:1020A00070B504460E4601791548154607F0EDFC5B
:1020B00010B394F900206378002A16DB202B04D09B
:1020C000222B0ED06FF085000AE02B681A6840F8CA
:1020D000102C9A8820F80C2C9B7900F80A3C0020E0
:1020E00070BD638800F8093CF9E7212BEAD107238A
:1020F000103828603360F2E76FF01200F0E700BF9D
:102100005C0E0020002103460C4AA0F8481010681D
:1021100083F89C10C3F8940090889279A3F89800F3
:1021200083F89A2083F89B104022A3F89E1083F82E
:10213000A01003F14C0009F052BD00BF04C1000023
:10214000012310B582F84830136814463BB192F869
:102150004A3023B10A4802F1080109F03DFBD4F8E6
:1021600090309A681B699A4208D004F11801002245
:10217000BDE810400023024805F02ABC10BD00BF96
:1021800030090020002310B50469C4F8A8300C4BB6
:10219000C4F8A400596804F1A80269B9C3E900228F
:1021A00004F10800074909F0FAFA04F11800064999
:1021B00009F029FB002010BD0A605A60F0E700BF5B
:1021C0005C0E0020FB9A00004520000073B5144609
:1021D00002F14C060A1E05461FDD3146D4F88C007C
:1021E00007F06BF9012384F8493023683BB194F878
:1021F0004B3023B10E4804F1080109F0EDFAD4F890
:102200008C104B684A699A1ACB699B1A3F2B04D8E9
:10221000012384F8A03002B070BD064B4022009329
:102220003146012328460194FFF7C4FDF3E700BFC0
:1022300030090020CD21000038B50D4601461E486A
:1022400007F018FC044680B3024652F8A439691E10
:102250005B68052929D8DFE801F02028032025291B
:1022600014F8061C31B91B6A187BFFF7AFFF012376
:1022700004F8063C14F85C3CBBB9012304F85C3C50
:1022800054F8A43C8BB114F85A3C73B1A4F19C01EE
:102290000A48BDE8384009F09FBA1046BDE838400A
:1022A000FFF730BF012304F8053C38BD14F8053CA6
:1022B000002BFAD00023F6E75C0E00203009002046
:1022C00037B50024084D4FF0FF334FF480622846A5
:1022D0000649009405F006FB0549284609F077F900
:1022E000204603B030BD00BF30090020802A002006
:1022F000ACC50000014806F01BB900BFBCC100001E
:1023000038B5044618B90F4B0F485B6898476168A9
:10231000B1F5683F10D0B1F5680F0DD00B4DA94253
:102320000AD011F46861206807D00146084809F016
:1023300022F900232360656038BD142209F04FFCA8
:10234000F9E700BF64020020B5C500002C5F5CA95E
:102350006413002008B560B34368B3F5683F0ED03E
:10236000B3F5680F18D0144A934220D000684FF09C
:10237000FF324FF0FF3305F087F858B115E0012226
:102380000368D3E8EF1F002903D1C3E8E02F00283A
:10239000F7D10AD1002008BD0368084A1B7803F56D
:1023A000807352F82330002BF4D00548F3E705483A
:1023B000F1E76FF4E040EEE72C5F5CA9000003500A
:1023C000E98FFFFFEA8FFFFF08B520B34368B3F53D
:1023D000683F09D0B3F5680F13D0114A93421DD05E
:1023E000006805F0CBF814E000220368D3E8EF1F83
:1023F000012903D1C3E8E02F0028F7D109D009480B
:1024000008BD00210368084A1B7803F5807342F871
:1024100023100020F4E76FF4E040F1E70348EFE712
:102420002C5F5CA9E98FFFFF00000350EA8FFFFFDC
:1024300010B5044618B91D4B1D485B689847636882
:10244000B3F5683F2FD0B3F5680F2CD0194A9342EB
:1024500019D1236803BB4FF0FF324FF0FF33214601
:10246000154804F01DFF08B923681BB90F4B13482A
:102470005B68984714220021206809F0B0FB4FF4F4
:102480006863636008E0B3F5683F0DD83A2B03D06A
:1024900040F6BA629342DED1206809F0B1F8636871
:1024A00043F03A03636010BD054AF3E7640200207D
:1024B000B5C500002C5F5CA964130020DBC50000DB
:1024C0003A00003A08B5064940231422054809F0AD
:1024D00044F8BDE808400449044806F09BB800BF32
:1024E000640E002064130020C4C10000D8C10000A5
:1024F000014910220A60704710ED00E072B64040BA
:1025000080F31188BFF36F8F01B5FEF7FBFA002847
:1025100002D0BFF34F8F30BFBDE8014062B6BFF3BA
:102520006F8F704772B6494081F3118801B5FEF78D
:10253000E9FA002802D0BFF34F8F20BFBDE8014069
:1025400080F3118862B6704740B2002807DB012390
:102550004109034A00F01F00834042F821307047D0
:1025600000E100E040B200280CDB012206494309EB
:1025700000F01F008240203341F82320BFF34F8F2B
:10258000BFF36F8F704700BF00E100E0054B4209C9
:1025900053F82220012300F01F0003FA00F010403E
:1025A000704700BF00E100E040B2002801F10101E6
:1025B000ACBF00F16040064B4FEA4111C9B2ABBF5E
:1025C00000F5614000F00F0080F8001319547047C7
:1025D00014ED00E030BFFFF7FDBF00BF0B4A08B5A8
:1025E0000B4B22F07F029A60BFF34F8FBFF36F8FC8
:1025F000D3F8882022F47002C3F8882004F072FD1A
:1026000005F07EFD00F032FA04F0B6FD0000000097
:1026100000ED00E0094A0A49936809689867D9679C
:1026200008494B6843F080534B60002383F31188C3
:10263000BFF36F8F9368D86F704700BF24200020CE
:102640001CC4000000ED00E016498A684FF030001D
:102650001044EFF3098C80E8F01F202080F31288EB
:10266000BFF36F8F104F4FF000664A698A603E607B
:102670004FF07404141920680C4C2060906F0023F4
:10268000936780F3118802F1300090E8F01F8CF31B
:10269000098802F1000004B507F0D4FABDE804404F
:1026A000704700002420002004ED00E0801300208B
:1026B0001EF0040F0CBFEFF30880EFF3098081696F
:1026C00011F8021C0229FFD001B507F0ACFA01BDD8
:1026D00042F8203C009B0B4942F81C3C019B21F036
:1026E000010142F8183C029B42F8081C42F8143CD5
:1026F0004FF0807342F8043C0023203A0265836760
:10270000704700BF8D0700000A4B446F98600A4B6A
:102710001C60436E83F30B88104681F30988002107
:1027200063B681F31188BFF36F8F00220023FEF799
:102730002DF800BF242000208013002001B5EFF306
:102740000580A0F110004FEAC0000449014409C906
:102750009847BDE8014002490847000000BE00005C
:10276000C1270000114B124A2DE9F041D518013D57
:10277000B5FBF3F5DFF83C805D430F4B074608EBF4
:102780000304013CB4FBF3F403FB04540E1B30467A
:102790000A4909F017FA701942460021083E09F06B
:1027A0001EFA7E6704F10800BDE8F0810100000018
:1027B000000000000400000004000000E8C0000069
:1027C000044B99685869884203D003494FF08052FE
:1027D0000A6070472420002004ED00E0154B9A6A3F
:1027E00012F0007F9A6A14BF1E201D2012F0807F15
:1027F0009A6A18BF1F2012F4801F9A6A18BF02201D
:1028000012F4002F9A6A18BF212012F4802F9A6ABE
:1028100018BF222012F4003F9A6A18BF232012F436
:10282000803F9A6A18BF24206FEA02426FEA124280
:102830009A62704700ED00E010B5194B0246986AA5
:102840009C6A10F4805F14BF1720162014F4006FE8
:102850009C6A18BF1820A40509D5986B986A0004D3
:1028600004D51AB19A6A22F400429A6219200C4BDC
:102870009A6A12F4806F9A6A18BF1A20D2050CD493
:102880009B6A13F4005F18BF1C20054A936A43F447
:102890007F43936200230B7010BD1B20F5E700BF40
:1028A00000ED00E010B51C4B0246986A9C6A10F0DF
:1028B000100F14BF1120102014F0080F9C6A18BFCD
:1028C0001220A40709D5586B986A000604D51AB1DE
:1028D0009A6A22F080029A6213200F4B9A6A12F0D1
:1028E000010F9A6A18BF142012F0200F9A6A18BFBD
:1028F0001520D40658BF9B6A074B9A6A920642BFBE
:102900005A6A22F400525A629A6A42F0FF029A62AC
:1029100000230B7010BD00BF00ED00E0F0B5474B89
:1029200004465B6800258BB0C3F3080385F3118868
:10293000BFF36F8F02F07F40B0F17F4F11D102F0F3
:102940000C0008280DD010074CBF0C4601250022B2
:10295000033B8DF80720032B05D8DFE803F0246242
:10296000665F2C46F3E700239DF80720CAB902AE44
:1029700004F12007324620686168083403C2BC4273
:102980001646F7D1099A002D53D0C2F3080121B998
:102990006FEA52226FEA42220992184602A907F012
:1029A00040F90BB0F0BD254BDA6A9107DBD4DA6A47
:1029B000002AD8DBDA6A5200D5D55A69A16942F4F7
:1029C00080725A61BFF34F8FBFF36F8F5A6931F82E
:1029D000021C22F480725A61BFF34F8FBFF36F8FD6
:1029E0004DF60272914209D09A6AD2B242B10120E8
:1029F0000DF10701FFF756FF0346B5E72368B3E77C
:102A00009A6A12F47F4F05D001200DF10701FFF7FC
:102A100013FFF1E79B6AB3F5803FA4D3FFF7DEFE17
:102A2000EAE700200DF10701E4E700200DF10701BE
:102A3000EDE722F4FF7222F00102ADE700ED00E0C5
:102A4000044B5A6942F010025A615A6942F480629A
:102A50005A61704700ED00E0EFF30880EFF3098161
:102A600001B57246FFF75AFF01BD00BF00232021C8
:102A70000348C2180133452B82F80013F9D170477F
:102A800000E100E0002080F31488BFF36F8F002086
:102A900080F30A8880F30B88FEF778F800200E494F
:102AA0000860BFF34F8F0D4880F3088800F03EF8B0
:102AB000202080F311880A484FF40061401880F309
:102AC0000988EFF314800221084380F31488BFF3D0
:102AD0006F8FFFF783FD000094ED00E0C03F002002
:102AE00080320020BFF34F8F0549064BCA6802F4BD
:102AF000E0621343CB60BFF34F8F00BFFDE700BF21
:102B000000ED00E00400FA05002318460649D1F85C
:102B10009020C2F30722934200DB7047C1F898303F
:102B2000C1F8A0000133F6E700ED00E010B572B681
:102B3000002484F31388FFF7E7FF23464FF0FF30AC
:102B40000C4A03F120010133102B42F82100F8D187
:102B500000234FF0FF30074A03F160010133102BCF
:102B600042F82100F8D162B6BFF34F8FBFF36F8FE9
:102B700010BD00BF00E100E0084B9B6883420BD111
:102B8000EFF3058343B1064B5A6842F080525A6016
:102B90005A6A22F400425A6205F040BA242000200A
:102BA00000ED00E01FB5094C094A23460121094800
:102BB00000F0EAF800230393074B0121E41A01A86F
:102BC0000193029400F0EAF804B010BD0000072061
:102BD00000000020E8C100004005002010B50C7A7C
:102BE0000B6804F01F0223F01F031A43CB6864092B
:102BF00023F01F03054943EA440343F00103C1F8EE
:102C00009800C1F89C20C1F8A03010BD00ED00E094
:102C10002DE9F04F0F46144606464FF000084E4D82
:102C200085B0B84580F29480D6F80490B9F1000FD1
:102C300036D0B9F11F0F40F2898019F01F0F40F014
:102C40008580D6F800A01AF01F0F7FD1504606F0FD
:102C5000FDFF834609EB0A00013806F0F7FF8345C4
:102C600074D11BF1160F71D05C456FDDC5F898B0BB
:102C7000D5F89C10C5F898B0D5F8A03021F01F0108
:102C800043F01F0AD6E900321A44994202F1FF3993
:102C90001ED1CA4508D131465FFA8BF006F0DFFF3E
:102CA00008F101080C36BCE73146C5F898B0D5F8F4
:102CB0009C3022F01F0203F01F031343C5F89C3021
:102CC000E0B206F0CCFF10F1160F3FD0441CE7E74E
:102CD000C5F898B0D5F8A020013B23F01F0302F0FF
:102CE0001F021343CA453146E0B2C5F8A030E8D010
:102CF00006F0B5FF10F1160F28D0C5F898B0D5F83A
:102D00009C209DF808300AF1FF3A62F304038DF825
:102D10000830D5F8A0309DF808205B0863F347120F
:102D20008DF80820D6E900321344009323F01F03E6
:102D3000411C5344A3EB0903C8B223F01F03072827
:102D4000039303D86946FFF749FFBFE76FF0150407
:102D5000204605B0BDE8F08F00ED00E00522044BF1
:102D6000C3F89420BFF34F8FBFF36F8F704700BF3E
:102D700000ED00E0BFF35F8F0022024BC3F8942008
:102D8000704700BF00ED00E010B5034C2278FFF75C
:102D90003FFF207010BD00BF4E2200202DE9F74FED
:102DA000294D8A4606464FF00008AB46274FD045CE
:102DB0001BDAD6F80490B9F1000F3FD0316808460D
:102DC000019106F043FF0199044609EB0100013827
:102DD00006F03CFF84424FF014021D4B08D002FB6A
:102DE00008F36FF015024BF8032003B0BDE8F08F35
:102DF00014F1160F2C60F8D01978A142F5DD02FB12
:102E000008B0C7F89840C7F89840D7F89C4000F140
:102E10000801007B64F304000871D7F8A0000C7966
:102E2000400860F347140C71D7F89C1021F01F0183
:102E30006960D7F8A01021F01F01296108F101088D
:102E400014350C36B3E700BF8413002000ED00E01A
:102E50004E22002038B50E4D2C68082C15D80020C5
:102E6000FFF788FF0B4B0C4AC3F8C020844205D102
:102E70000A4B00201C70FFF771FF38BD696801EB39
:102E80000011FFF7ABFE0130F0E74FF0FF30F4E741
:102E9000F4C1000000ED00E0AAFF44004E22002033
:102EA00008B5044805F0D9FE404080F311884FF082
:102EB000020002DF0CC6000008B50649064821F0F2
:102EC0000701C1F1005202F5E02206F028F90020C6
:102ED00008BD00BF336A0220C05100201022174BEA
:102EE00070B5C3F840244FF47F03D3F83021D3F8F2
:102EF0003431072A1BD1023B032B02D8104AD35C82
:102F0000ABB14FF05024012600250520C4F8186607
:102F1000C4F8145607F0FEFA3046C4F8146607F0F9
:102F2000F9FAC4F81456C4F81856002070BD4FF0D2
:102F300050230022C3F81426F7E700BF00300050EA
:102F400039C60000074A0346106828B9D96831B16C
:102F5000596921B1136070476FF0770070476FF0C7
:102F60001500704798130020052838B5054608D885
:102F70002A21C140C90704D5064806F091FE04463F
:102F800010B90024204638BD01210C3006F091FE16
:102F90002576F7E7380400202DE9F04102280446A1
:102FA000DDE9066730D0062802D050B91A4810E093
:102FB0001A490978012904D13478012C05D0022C52
:102FC00020D000252846BDE8F081002412480136B3
:102FD000013F06F065FE05460028F2D000F10C081E
:102FE0000121404606F065FE2C76002EEAD0002F27
:102FF000E8D0404606F07BFEB84207D2284600F0F3
:10300000EFF8DEE70648E2E70548E2E73A463146F0
:10301000404606F052FED5E70C040020C402002012
:10302000E003002010B50D4B04461B78012B0CD19A
:10303000037E012B04D0032B0ED06FF0150010BDC2
:10304000042104F10C0006F041FE054B21461868EE
:1030500006F02DFE0020F2E70221F2E7C402002074
:103060009C130020038A1BB1024B1B685B69184745
:103070001220704798130020044B054A1B6810600B
:103080000BB1DB6818476FF01200704798130020EF
:103090009C1300202C21827A054B01FB02339A6A93
:1030A0001B7F801A1B3323F00303B0FBF3F0704740
:1030B000E003002038B52C24827A094B04FB02334C
:1030C0005B6A0C685B681A68944294BF0C600A6083
:1030D000D3E90054FFF7DEFF05FB004038BD00BF19
:1030E000E00300202DE9F04385B005466846904690
:1030F0001C46039108F09AFCDDE900674FF02003BD
:10310000EFF3118983F31288BFF36F8F6B8B002B62
:1031100045D02A8B9A4229D900220023284604F060
:1031200069FA044610B389F31188BFF36F8F039BCC
:10313000002B45D032462C263B46684608F09AFCC8
:10314000254DA37A204606FB03535B6A03A91B683F
:103150001F68DDE90023B8476061002831D1A07AFB
:10316000214600FB065008F0CFFA24E0698B4B1E85
:103170006B8389F31188BFF36F8F2B7F2A8BAC6A27
:103180001B3323F00303521A02FB0344124B134A6E
:10319000EB1A9B105343A3722B7FE372C7E789F3AB
:1031A0001188BFF36F8F23464246284604F022FA67
:1031B00004460028BBD10024204605B0BDE8F083BA
:1031C000636100230122636022812382039A636981
:1031D0006282E360F0E700BFE0030020A38B2EBA19
:1031E0002DE9F041044600262C27154D0CB9BDE809
:1031F000F081237AD4F80480013BDBB22372002BE8
:10320000F5D1616959B1637ADB0707D4A37A204607
:1032100007FB03535B6A1B689B6898476661A07A4B
:10322000E66007FB005366601B6A1BB120469847A7
:103230004446DBE7214600FB075008F065FAF7E754
:10324000E0030020020600F07F0312D5082B05D111
:10325000010700F00F0306D50E48704710F0780FF5
:1032600012D100F00F034C2000EB43100A4B18441E
:103270007047082B05D1020700F00F0306D5074859
:10328000704710F0780FF6D000207047044800EB2C
:1032900043107047EC140020A01300200C160020EF
:1032A0000C1500200149024808F096BAC813002006
:1032B000D00900200146014808F01BBAC8030020CD
:1032C00000220023014804F095B900BFC803002084
:1032D00013B5002201213720FFF766F93720FFF7E9
:1032E00033F9124802F0A2FD114B98421AD1002482
:1032F000104802F0F3FA104803F064FA4FF0FF337D
:103300004FF480620D490E48009404F0EBFA0D4929
:103310000B4808F05CF90C480C4908F040FA2046CC
:1033200002B010BD6FF00400FAE700BF2D350000B9
:103330000000AD0B86C6000058C20000802E0020A1
:10334000D009002078C60000C813002049360000CC
:10335000002310B50B49D1E8EF2F012A03D1C1E8B2
:10336000E03F0028F7D10CD151F8044C1439204625
:1033700006F028F8783004D12046BDE8104005F06A
:10338000FCBF10BDC013002038B5002464F07F00DE
:10339000C0B2FFF757FF013406F0B1FC082CF5D19D
:1033A00000240E4DE0B2FFF74DFF036903B905613C
:1033B000013406F0A4FC082C05F14005F2D10848C0
:1033C00006F09DFC074BD3F87C2212B9064AC3F8DD
:1033D0007C22064806F093FC002038BD301A0020FD
:1033E000EC140020A0130020301600200C16002042
:1033F00010B5054CFFF764FF20B14168204608F086
:10340000BAF8F7E710BD00BFD402002007B50023CB
:1034100000220E4801A903F043FF90B1FFF7E8FF37
:1034200000220023094801A903F03AFF38B9042318
:10343000019840600374FFF73DFFFFF733FF002062
:1034400001E00198406003B05DF804FBD402002065
:10345000022810B511D8094B1C5CFFF7D7FF60B1EB
:10346000002204720274FFF725FF054B93F8243005
:103470001BB1BDE81040FFF715BF10BD83C60000AB
:10348000A0130020F8B5877806463846FFF7DAFE25
:103490003B060446F57812D5002D43D1FFF7B6FF61
:1034A000034600283ED00122A5770274032202734E
:1034B0009C60FFF7FFFEBDE8F840FFF7F3BE4DB19B
:1034C000012D2FD1FFF7A2FF034658B3657705748E
:1034D0000573EDE7FFF79AFF20B3B278124B12F0B5
:1034E000800F02F0080111D041B1D3F8A836E36093
:1034F00001230374022384600373DAE7142102F0CA
:103500000F0201FB0233D3F80836F0E711B1D3F80C
:10351000A837ECE7142102F00F0201FB0233D3F8C5
:103520000837E4E7F8BD00BF00600350F0B5064679
:1035300089B01422002103A808F051FB3378013B25
:10354000052B21D8DFE803F07A0314146A1603234D
:1035500000248DF81430FFF759FF0346A0B100F1A5
:1035600008020474DDE9050182E8030018461DE045
:103570000423EDE7B7783846FFF764FE837A044604
:1035800023B1013B022B43D909B0F0BD3B06F578CE
:1035900013D5002DF8D1FFF739FF03460028F3D0EB
:1035A0000122A5770274032202739C60FFF782FE5A
:1035B00009B0BDE8F040FFF775BE55B1012DE3D16C
:1035C000FFF724FF03460028DED0657705740573F6
:1035D000EBE7FFF71BFF07460028D5D00123037454
:1035E00002238460037304F10C01B07807F07CF9C6
:1035F000134AE168B2F88C328B4206D95B1AA2F802
:103600008C3202F061FE3846D0E7A2F88C52FAE71D
:10361000304609B0BDE8F040FFF734BF01A802F022
:1036200031FE9DF80530052B04D19DF8043013F0D0
:10363000600FA9D0034B012405938CE702248AE78D
:10364000A01300200C1500202DE9F0438046AC4C5F
:10365000DFF8B09285B0FFF733FE074610B905B02A
:10366000BDE8F08394F825303A7C3BB9002A00F09D
:1036700086807968A34807F07EFFECE7042A42D8E9
:10368000DFE812F07D000500FC0012012D013B7BFC
:10369000BD68032B37D8DFE803F0023D5A5F0022F4
:1036A0006E69994B32607260D3F880143170D3F830
:1036B00084147170D3F88814D3F88C0441EA002183
:1036C0007180D3F89014D3F8940441EA0021B180BA
:1036D000D3F89814D3F89C3441EA0323F3800823E9
:1036E000EB6030687168894B03C311462B68687AB8
:1036F000984796F90030002B08DBF38833B1A4F823
:103700008C3202F0E1FD48467968B4E70023A4F862
:103710008C32F8E76B7F002BF5D02B7F002BF2D09B
:1037200000264FF0FF326E774FF0FF3378482E7748
:1037300006F0F8FA6B6901A901936B68CDE90236CE
:10374000687A02F0B5FB724806F0EEFADBE7012179
:103750002B68687A9847D6E7AB7A6BB9EB7F5BB991
:103760006B484FF0FF324FF0FF3306F0DBFA02F008
:10377000DFFD674806F0D8FA02212B68E9E73A7ABC
:10378000042AC0D8DFE802F055031F636F0002F07F
:1037900017FB05460028B6D102F0B8FA01235D49AF
:1037A000D1E8EF2F002A03D1C1E8E03F0028F7D18C
:1037B000A9D141F8085C41F8105CE06914396361F3
:1037C00005F083FD9FE7002565F07F00C0B2FFF79D
:1037D00039FD037A13B1407A02F070FF0135082DEC
:1037E000F2D194F854311BB194F8550102F066FF00
:1037F0000025E8B2FFF726FD037A13B1407A02F004
:103800005DFF0135082DF4D194F874321BB194F8A2
:10381000750202F053FF002002F0B4FA012384F88D
:1038200025302368002B3FF46EAF0021022098471B
:1038300069E7002584F8255002F0E6FEFFF788FDD1
:103840002368002B3FF45FAF29460420EFE7002BED
:103850003FF459AF02F0BEFA2368002B3FF453AF98
:1038600000210520E3E72268002A3FF44CAF002B3B
:103870003FF449AF00210620904744E708F11005C6
:103880004FF0FF334FF0FF32284606F04BFAFFF7B8
:103890007BFD284606F048FA58F8283C002B3FF4F8
:1038A00032AF00210120C2E794F874327BB10125C8
:1038B00084F8895284F88852FFF7A8FD38B1164A77
:1038C000057405738260FFF7F5FCFFF7EBFC58F811
:1038D000283C002B3FF417AF00210A20A7E702F095
:1038E00059FF02F091FE02F007FAFFF781FDFFF7A2
:1038F0004BFD02F047FF094802F098FA03E700BFCA
:10390000A0130020D402002000600350A413002064
:10391000D8130020C01300200C1600202D35000005
:1039200038B5154D95F8244024BB05F1380007F053
:1039300067FE022000F06CFB22460121E861362080
:10394000FEF732FE02F01EFFFFF71EFD044610B91F
:10395000012385F82430094B1B680BB1FFF7A2FC4B
:10396000074BD3F80034DB0702D50020FFF770FDCA
:10397000204638BD0024FBE7A0130020C803002028
:1039800000700350074B93F824203AB193F8253088
:10399000002B14BF00206FF0120070476FF0120070
:1039A000704700BFA013002038B5104B044693F8B1
:1039B0002430C3B105782846FFF744FC10B96FF0F6
:1039C000150038BD4572237983726388436020787F
:1039D000618810F0080F02D14B1E0B42EFD106F0A8
:1039E0007EFF0020EDE76FF01200EAE7A013002051
:1039F00038B5124B054693F82420CAB193F8253008
:103A0000B3B1FFF71FFC0446A8B1837A012B12D093
:103A100007D9023B012B07D900206369E060A3614D
:103A200038BD02F08DFCF7E7284602F0FDFBF3E716
:103A30006FF01200F4E76FF01500F1E7A01300201B
:103A400038B50E4B054693F8242082B193F8253003
:103A50006BB1FFF7F7FB68B115F008040AD12846EF
:103A600002F004FC284602F07DFE204638BD6FF0CF
:103A70001200FBE76FF01500F8E700BFA01300206D
:103A800038B50C4B054693F824200C4662B193F8E8
:103A900025304BB1FFF7D6FB48B144B1284602F0C0
:103AA000CBFB2070002038BD6FF01200FBE76FF0F9
:103AB0001500F8E7A013002070B5134E044696F8E1
:103AC0002430C3B1FFF7BEFB0546B8B1230705D4C8
:103AD000204602F0CBFB204602F044FE2B7A83B94D
:103AE00001232B7296F825300BB9002070BD2046BB
:103AF00002F0E4FDF9E76FF01200F7E76FF0150050
:103B0000F4E76FF07700F1E7A01300202DE9F04310
:103B1000DFF8E4801E4698F82430074689461546AB
:103B200085B0002B61D098F82530002B5DD00306BE
:103B30005ED5FFF787FB0446002859D0037A002B97
:103B400056D04FF0FF334FF0FF3208F1380006F047
:103B5000E9F8A37F4BB108F1380006F0E5F86FF003
:103B60000A04204605B0BDE8F083A37AC5B13BB393
:103B700001234FF00008A377384601A9CDE901954C
:103B8000CDF80C8002F094F91C4B984229D084F8AF
:103B90001E801EBB6FF00404194806F0C5F8E0E76C
:103BA000E27F02B1E577002BE2D102F0D1FBB8420F
:103BB000DED002F0BDFB124806F0B6F80024D0E7D4
:103BC000B8F80A30AB42F0D96268B5FBF2F302FBF9
:103BD0001353002BE9D10123E377E6E7C6F8008011
:103BE000D8E706B135600024D6E76FF01204B8E7D5
:103BF0006FF01504B5E700BFA01300200000AD0B67
:103C0000D81300202DE9F0411D46204B174693F8AC
:103C100024200E46002A33D093F8253083B30306C0
:103C200031D401B97FBBFFF70DFB044658B3037ACB
:103C30004BB34FF0FF334FF0FF32154806F072F8E8
:103C4000E368B8469F4228BF984646B93FB905B1D8
:103C50002B600F4806F068F80020BDE8F08142466E
:103C60003046A16907F0AEFFA3694344A361E3684E
:103C7000A3EB0803E360002DEBD0C5F80080E8E774
:103C80006FF01200E9E76FF01500E6E7A0130020DF
:103C9000D813002070B51E4D034695F8242082B33A
:103CA00095F825206AB31B062ED4FFF7CBFA0446FD
:103CB00050B3037A43B34FF0FF334FF0FF3205F1B7
:103CC000380006F02FF8E368B3B901266369267758
:103CD000A361637F83B1FFF799FB30B905F1380029
:103CE00006F022F86FF00B0070BD06748460067356
:103CF000FFF7E0FAFFF7D6FA064806F015F80020BD
:103D0000F2E76FF01200EFE76FF01500ECE700BF8D
:103D1000A0130020D813002010B5084B0C4693F8D0
:103D200024302BB1FFF78EFA28B10460002010BDBB
:103D30006FF01200FBE76FF01500F8E7A01300200A
:103D4000014B1860704700BFA013002008B5074B57
:103D500093F8243023B1FFF775FA20B1406808BD0D
:103D60006FF01200FBE76FF01500F8E7A0130020DA
:103D70000148FFF7E7B800BF60C2000010B5017E40
:103D80000446022903D004290FD049B9012104F1C6
:103D90000C0005F09BFF228AE168054805F020FC35
:103DA0002046FFF71DFA002010BD0521EFE700BFF8
:103DB000301C0020014803F051BC00BF6803002004
:103DC00010B50B4805F0EAFB10B110F1780F0DD1DA
:103DD000084A0949064805F0EFFB38B9BDE810402C
:103DE0004FF400420023054803F05EBC10BD00BF45
:103DF000ECBD000058010020301C002068030020AA
:103E0000084B70B5C31A0D4607499B100446594329
:103E10004022064806F07DF82B4601462046BDE8C4
:103E2000704018474C1C0020B76DDBB674BD000015
:103E3000402373B50B4C0093041B0B460D460A49F7
:103E4000A41061430646094A094806F08FF8011E8E
:103E500005DA30462B4602B0BDE87040184702B084
:103E600070BD00BF4C1C0020B76DDBB6D99F0000B1
:103E700074BD00002DE9F84300220121064605200B
:103E8000FEF792FB114801F073F8114B984219D1DB
:103E900001F07EF800244FF01C090C27DFF8348075
:103EA0003569414609FB045005F0FCF9002807DBA1
:103EB000012307FB04551C44042CAB67F0D1002000
:103EC000BDE8F8836FF00400FAE700BF0D3F000083
:103ED0000000AD0B78C2000001460C2300224B43CA
:103EE00070B50848C41878331844D4E91C562267C2
:103EF00005F0FCFF2DB132462B46BDE8704002486C
:103F0000184770BD4C1C002074BD0000062812D854
:103F1000DFE800F0040F1111110D0B00064B986F34
:103F200010F0070007D1FFF7D7BF0220FBE70320FF
:103F3000F9E70120F7E770474C1C002008B54FF067
:103F40002003EFF3118183F31288BFF36F8F124ABE
:103F5000136843F002001060DA0708D481F3118877
:103F6000BFF36F8FBDE80840012006F099BB4FF00A
:103F70005023D3F80C24D3F80C34DB07EED50748D4
:103F800005F0B4FF81F31188BFF36F8FBDE80840DF
:103F90000020FFF7A1BF00BFEC1C0020C41C0020C4
:103FA0007FB500220123CDE9022304ABCDE9043320
:103FB000094A6B46CDF800D0CDF804D006F005F8DC
:103FC000002805DB4FF480420023684603F06CFBB9
:103FD00007B05DF804FB00BF0FA0000010B54FF064
:103FE0002003EFF3118483F31288BFF36F8F074A26
:103FF000136823F00201DB07116002D4012006F0F0
:10400000AEFB84F31188BFF36F8F10BDEC1C002052
:10401000C3B21C20014A03FB002070474C1C002047
:104020002DE9F041012207463749D1E8EF3FC1E8C9
:10403000E02F0028F9D133B9344935484B60CB60C3
:104040008A6005F042F97B1E012B2BD8012F07D186
:104050004FF05023D3F81C3403F00303022B21D07C
:1040600007F0AFFA0546F8B92A4B1B78E3B14FF0D9
:10407000502302220646C3F808234FF05024DFF8ED
:104080009880D4F81824D4F81834D20316D503F045
:104090000303022B01D0012F10D175B386F31188D1
:1040A000BFF36F8FBDE8F0814FF02003EFF311866F
:1040B00083F31288BFF36F8F0125DEE7C5B1304669
:1040C000FEF730FAD4F81835DBB2012BD9D1D4F889
:1040D0000421002AD5D00022C4F80421D4F80421F8
:1040E0000222C4F818252022C8F88021A360C8E75E
:1040F0000021212003F058FFE4E74FF05023022273
:10410000C3F80423CEE700BF481C0020381C002061
:10411000681C00207822002000E100E030B54068F3
:1041200001F01F04057BB2F5001F85B044EA451479
:1041300005D1204601F034FA002005B030BD00253D
:10414000B2F5800FCDE9025514D1B3F1007F0CBF59
:10415000042305238DF8083000232046194602AABF
:1041600001F040F8224B98423CD10121204601F059
:10417000CBF9E1E7B3F1C06F27D0B3F1007F14BFF3
:10418000012302238DF80830836823FA01F111F02E
:104190000101E1D1B2F1A07FDED104F01F03620979
:1041A00003F1800313D0012A1FD1124A52F82330A1
:1041B000DB07D1D40DF107052946204601F04EF961
:1041C0000D4B984205D00395C6E70323DAE70B4A67
:1041D000ECE7284601F092F9054B9842F3D06FF0D6
:1041E0000B00AAE76FF01500A7E751F82330FFDEB8
:1041F0000000AD0B002884500400AD0B0025845056
:1042000010B501F06BF9044668B901F03FF9084BAD
:1042100098420AD12146074801F01AF922460521A1
:104220000D20FEF7C1F9002010BD6FF00400FBE780
:104230000000AD0B394200004209034670B502D0C0
:10424000012A17D070BD0D4E326951680029F9D08E
:10425000012503F01F030C689D400029F2D08A68F5
:104260002A4002D030464B6898472CB1236821463B
:104270001C46F2E7024EE7E72346F8E79CBD000044
:1042800088BD00002DE9FF41476801F01F053B7B19
:10429000144645EA43150E4628460DF1070101F084
:1042A000DDF814F4403F80460DD1284601F09EF918
:1042B0003C4B984503D19DF8070001F019F9002007
:1042C00004B0BDE8F08100232846194602AACDE9D2
:1042D000023300F087FF334B984214D1804503D15D
:1042E0009DF8070001F004F9A3034CD540F2063312
:1042F0002340B3F5837F1AD00DD8062B18D005D8EC
:10430000B3B1022B32D06FF01500D9E7B3F5807F3F
:10431000F9D101230CE040F20222934228D0B3F5F8
:10432000407F27D0B3F5007FEDD1022300E00723C3
:104330008DF8083084F48033C3F30043E0068DF831
:1043400009304CBF0323C4F3401321038DF80A3016
:1043500012D501237A68B34093600022284602A94F
:1043600000F0F8FF0F4B9842A9D0CCE70423DFE719
:104370000523DDE70323DBE7620341BF01237A68FE
:10438000B340D360E9E7E3064FF000034CBF0324DA
:10439000C4F340141A46284602A98DF8084000F0DC
:1043A00021FFDFE70000AD0B10B504460269A2B0A3
:1043B000C2F880001649002001F028FA00220121ED
:1043C0002A20FEF7F1F88422002101A8646807F092
:1043D00006FC0023012001AA61680432D940C90704
:1043E00044BF00FA03F142F8041C2168D940C90710
:1043F00048BF00FA03F103F1010348BFD163102B5A
:10440000EAD101A801F01AFA002022B010BD00BFC5
:10441000DBA00000036803F01F025B09026004D008
:10442000012B034818BF002070470248704700BFA7
:1044300000288450002584502DE9F04F154682460F
:104440004FF00108DFF8789185B000EB810151450C
:1044500003D1002005B0BDE8F08FDAF8003003F09A
:104460007F04C3F343277F2C4FEA134308BF4FF069
:10447000FF34222B00F2A180DFE803F012222A424F
:104480002D34429F9F9F9F45719F9F9F9F9F9F9FFE
:104490009F9F747F82859F9F9F888E9194979A009B
:1044A000C5F80C45601C1AD003A80394FFF7B2FFAF
:1044B0000126039B08FA03F383604FF0010B2BE006
:1044C000C5F81445631C0AD000264FF0000B23E00A
:1044D000C5F80845E6E7621CC5F808456BD10AF146
:1044E000040AB4E7631CC5F80C45F8D0012603A8FC
:1044F0000394FFF78FFF039B08FA03F3C360DCE725
:10450000C5F81045DEE7C5F80845002FDAD1671C6D
:10451000E5D000260627B346DAF8003003A803F4F6
:104520000052002A1CBF01264FF0000B0193039498
:10453000FFF770FF039A019B00EB8200D0F8002286
:10454000C3F3C1143B0243EA840343EA0B0302EAC8
:104550000902134343EA4603C0F80032BFE7C5F837
:104560000C45D2E7C5F86045661CDAF80030B6D0D5
:10457000C3F38033002BB9D096E7C5F86445F3E761
:10458000C5F86845F0E7C5F86C45EDE7C5F8244582
:10459000621CA4D0012698E7C5F8284582E7C5F833
:1045A0003045F5E7C5F83445F2E7C5F83845EFE79B
:1045B000C5F83C45ECE7002699E76FF0850049E730
:1045C000F0F0FCFFF0B54B79012B29D0032B24D15F
:1045D00010278B79032B20D1CE790EB1012E1CD15F
:1045E0000A79012A1ED0022A20D0B2B914460B68DB
:1045F0004568B3F5164FD5F800C06ED033D8B3F583
:10460000165F6DD01CD8B3F5966F6BD010D8B3F58C
:10461000967F6AD0B3F5167F6AD06FF085005BE0B5
:104620000027D6E74FF480740E22E0E70024FBE772
:10463000B3F5166F5FD0B3F5965FEED1384B3CE023
:10464000B3F5E14F5AD007D8B3F5615F58D0B3F551
:10465000964FE2D1334B30E047F61225AB42DCD126
:104660004FF4000329E0B3F5613F4BD013D8B3F505
:10467000963F4AD009D84DF6C025AB4247D0B3F596
:10468000614FCAD14FF46B0317E0B3F5E13FC4D1DA
:104690004FF0EB7311E0B3F5612F3BD008D8224DFA
:1046A000AB423AD0B3F5E12FB7D14FF0E86304E065
:1046B0001E4DAB42B1D14FF080530569CCF8243583
:1046C00043683A431B6834432243C3F86C252B1DCF
:1046D00003C983E803000020F0BD4FF41D03ECE79D
:1046E000134BEAE74FF49E23E7E74FF4A033E4E7E8
:1046F0004FF41C33E1E74FF41D23DEE70D4BDCE7FD
:104700000D4BDAE74FF06C73D7E70C4BD5E74FF45E
:104710006503D2E74FF07063CFE74FF08063CCE7DB
:1047200000B0130000A04E0090D0030040420F00E4
:104730000050270000C0750000F03A0000903A01D8
:104740002DE9F7438046002201210820FDF72CFFC8
:104750000820FDF7F9FE0021D8F80470D8F81060A1
:104760003C6801AAC4F80015C6F80080D7F80C9080
:10477000484605F025FD051E4CDB019BD9F80020BD
:1047800019791868FFF758FE051E43DB4046311DB6
:10479000FFF718FF054600283CD17B68990712D522
:1047A00006F11C0000F062FC1E4B984236D1307FAF
:1047B00004F10C0204F5907105F0B8FE0120337F7E
:1047C000984000F0CFFB0823C4F800353B7A53B97A
:1047D000C4F81031D4F81031B369C4F8343501236A
:1047E000C4F8383523607B689A075CBF4FF4807348
:1047F000C4F804337B68DB0644BF4FF48003C4F87D
:1048000004337369C4F844350023C4F848350123E0
:10481000A360E360284603B0BDE8F0836FF00405B1
:10482000F8E700BF0000AD0BF8B504460D46076978
:1048300006F0C7FEB0B9214B1B789BB164266068B7
:1048400005F0A0FD00BB012005F064FE013EF6D19D
:104850000021212003F0A8FBF0E781F31188BFF3CA
:104860006F8FF5E74FF02003EFF3118183F3128888
:10487000BFF36F8F60680E4605F084FD90B981F339
:104880001188BFF36F8FEDE74FF02003EFF3118135
:1048900083F31288BFF36F8F60680E4605F072FDD8
:1048A0000028DAD07B6901221D702046796905F065
:1048B000A9FC86F31188BFF36F8FF8BD7822002022
:1048C0000123834070B5DC430B4AD2E8EF1F01EAB5
:1048D0000405C2E8E65F002EF7D14FF48032824033
:1048E0000648C0F80823BFF35F8FBFF36F8F0B42FA
:1048F00014BF0120002070BD941D00200050015005
:1049000070B40E4922F07F46D1E90034D01AC318A2
:1049100044F10004C1E90034A6F50013B3F5400FDB
:1049200009D2074B1B681A0A1B069C19054B42F15A
:104930000005C3E9004570BC03F0B8BC800A002044
:10494000981D0020880A0020D9B101230D4A834018
:10495000D2E8EFCF4CEA030CC2E8E1CF0029F7D14F
:104960004FF48033084A8340C2F80433074BD3E83E
:10497000AF3FC340DB0742BF4FF40012044BC3F804
:1049800000217047941D002000500150901D002010
:1049900000E100E00D4B1868010A0006BFF35F8FCD
:1049A0000B4BD3F80435181841F10001B3F5801F03
:1049B0000AD2084BD3E90023904271EB030303D2E0
:1049C00010F1807041F10001704700BF981D002078
:1049D00000500150880A00202DE9F04F85B016469E
:1049E0001F4604469DF840A0FFF76AFF0190FFF7BD
:1049F000D1FFB04271EB070352D23B4B301A67EB49
:104A00000101984271F100014DD2384B03EB0413C0
:104A1000D3E902239F4208BF964258D04FF4803812
:104A2000334908FA04F8204626F07F4BC1F8488342
:104A300005F050FD4FF00309584604F15005AD0054
:104A4000ADB205F1502504F5A87305F58035029344
:104A5000029A20F07F4341F82230C1F84483D1F814
:104A60000435244AC01A033820F07F4090422ED9E2
:104A7000286868B1D1F80435A3EB0B0020F07F4023
:104A8000B0F5000F039322D9204605F023FD039BC8
:104A9000BAF1000F07D109EB030009F10109D7E7CB
:104AA000BAF1000F09D06FF0150520460199FFF704
:104AB0004BFF284605B0BDE8F08F01230E4AA34006
:104AC000D2E8EF0F1843C2E8E10F0029F8D10749F7
:104AD0000E982301C8500F9B01EB04120025C2E978
:104AE00002675360E1E700BF01008000700A002008
:104AF00000500150FDFF7F00901D00207FB5002574
:104B00004FF0FF304FF0FF31194C1A4B0226C4F81A
:104B10000833C4F84833184BC4F80855C3E90201F8
:104B20004FF480334FF40012C4F80433134B0121C7
:104B3000C4F804631520C3F880212A46FDF734FD2C
:104B40001520FDF701FD01230D4AA36023601360CA
:104B50000C4B0D4A009328460023CDE90155FFF781
:104B60003BFF3046FFF75CFA284604B070BD00BF3B
:104B70000050015003000F00700A002000E100E027
:104B8000941D002001490000FFFF7F002DE9F7433D
:104B90002E4BD3F8042390070BD5D3F8042142B150
:104BA0000022C3F804212A4AD3F8043113680133E0
:104BB0001360264AD2F80433D90327D5254BD3E80E
:104BC000EF1F21F00100C3E8E40F002CF7D1CB0761
:104BD00002D4D2F84031CBB100251C4CC4F840516E
:104BE000D4F84031FFF7D6FE4FF02003EFF31182E7
:104BF00083F31288BFF36F8F174BD3E90267B0427C
:104C0000B94106D282F31188BFF36F8F03B0BDE8BC
:104C1000F0834FF0FF38D3E900104FF0FF391D60EB
:104C2000C3E902894FF48033C4F84833C4F84051D3
:104C3000D4F8403182F31188BFF36F8F0029E5D09B
:104C4000009032463B4628468847DFE70050015037
:104C5000981D0020901D0020700A00201FB5431CE5
:104C600022D0012822DD124A124B9042D4BF0446C2
:104C70001C46FFF78FFE104B0E49D3E90023801A24
:104C8000B0F5000F28BF002404448C4228BF0C4616
:104C900000200A49A218CDE90100009143F1000368
:104CA000FFF79AFE04B010BD024CE2E70124E0E7F2
:104CB000FEFF7F00FFFF7F00800A00200149000007
:104CC00008B5FFF767FE024B1B68C01A08BD00BF9E
:104CD000800A0020012310B5074C15206360FDF702
:104CE00041FC4FF40012054BC4F80833C4F84833B4
:104CF000034BC3F8802110BD0050015003000F008A
:104D000000E100E04FF47F03D3F83021D3F83431D1
:104D1000072A05D1023B032B02D8024AD05C704718
:104D20000020704727C7000008B5FFF7EBFF58B118
:104D3000644BD3F8202A3AB90D21C3F8201A012177
:104D4000C3F81C19C3F81C290022D30003F57F0304
:104D5000D3F80013013107D0D3F800130132D3F890
:104D60000433202A0B60F0D1FFF7CCFF002840F07D
:104D7000A080FFF7C7FF40B1534B544AC3F830251A
:104D80004FF050230122C3F858254FF47F03D3F886
:104D90003021D3F83431072A09D1023B032B06D83E
:104DA0004B4AD35C1BB100224A4BC3F84C25FFF79A
:104DB000A9FF50B14FF05023D3F80024D10742BFD0
:104DC0000022C3F81421C3F818214FF47F03D3F84D
:104DD0003021D3F83431072A09D14FF05023D3F8CA
:104DE0000024D20744BF6FF00102C3F80024FFF78C
:104DF00089FF18B16522334BC3F80C274FF47F03AA
:104E0000D3F83021D3F83431072A16D1314BD3F8F7
:104E10002034002B11DA4FF050230322C3F8182559
:104E200001229A60D3F80421002AFBD00022C3F8A3
:104E300004210122DA60C3F818254FF47F03D3F868
:104E40003021D3F83431072A23D1023B032B02D877
:104E5000214AD35CEBB17E221A4B1B49C3F80C27C5
:104E6000C3F83C297F231D4AC2F818310023C1F83A
:104E7000043EC1F8083E01F54821C1F81031C2F8DE
:104E80002431C2F82C3102F5FF1202F58052C2F82B
:104E9000A032134AD2F88C3043F44063C2F88C300D
:104EA000104A114B1168C3F84415D269C3F84C2558
:104EB00008BD2922034BC3F80C270322C3F83C2763
:104EC00057E700BF00400050009003504400EFBE81
:104ED00023C70000002003501FC70000002000501F
:104EE00000ED00E00080FF000060005030B5046875
:104EF000ACB1B4FA84F30122C3F11F03DBB29A40D0
:104F000024EA0202D0E8EF5FA54204D1C0E8EC2F0A
:104F1000BCF1000FF6D1EAD102480B7030BD024857
:104F2000FCE700BF0000AD0B0200AD0B10B503683D
:104F3000CB40DB0710D401238B40026843EA020117
:104F4000D0E8EF4F944204D1C0E8EC1FBCF1000F51
:104F5000F6D1F2D1014810BD0148FCE70000AD0BCD
:104F60000400AD0B014BC3F80405704700700150FD
:104F7000044B1A7922B9012218601A71024870474D
:104F8000024870479C1D00200000AD0B0C00AD0BCB
:104F900008B50520FDF7FAFA10B90520FDF7D4FA97
:104FA0004FF050220123C2F81835C2F81435C2F868
:104FB0008035014A137008BD712200204FF0502344
:104FC00010B5D3F8002152B10020C3F80001D3F886
:104FD00000210122C3F80823234B1B6898474FF098
:104FE0005023D3F8042182B10022C3F80421D3F85E
:104FF0000421D3F81824D3F81824022102F0030264
:10500000012A28D1C3F818159A604FF05023D3F81D
:10501000202162B10022C3F82021D3F820214FF4CF
:105020008072C3F80823104B05201B6898474FF087
:105030005023D3F82421AAB10022C3F82421D3F8A5
:1050400024214FF40072C3F80823074B0620BDE863
:1050500010401B681847C3F80813034B01201B6856
:105060009847D2E710BD00BF9C1D002001460148B3
:10507000FFF73CBFB0010020036803F01F025B098B
:10508000026004D0012B034818BF0020704702487B
:10509000704700BF0028845000258450034A43090C
:1050A000D35C00F01F001844C0B2704740C7000036
:1050B00008B5FFF7F3FF034B083033F81000C0F3D7
:1050C000401008BDB401002008B5FFF7E7FF034B0F
:1050D000083033F81000C0F3400008BDB4010020D0
:1050E00008B5FFF7DBFF034B083033F81000400B27
:1050F00008BD00BFB401002070B50546FFF7CEFF24
:105100000C4C083034F810300E46DA0508D5C3F3DD
:10511000432304EBC302284654F8333052689847BF
:10512000A3682BB131462846E268BDE870401847B5
:1051300070BD00BFB401002010B5FFF7AFFF124AE9
:10514000083032F81030D9051CD5C3F3432123F4BD
:10515000F85322F81030002002F10E0434F8023F18
:1051600013F4807F03D0C3F3432399420AD0013064
:105170003028F3D1002342F831300448BDE8104014
:10518000FFF7D4BE10BD00BFB401002028020020EC
:1051900001460020F0B5012506460F4A0F4C02F1EA
:1051A0003043A3F551439B0805FA03F3194204D099
:1051B000176817B11660176818430432A242EED17F
:1051C000074BD3F87C2132B10022C3F87C21D3F8FD
:1051D0007C3140F00040F0BD00D1005020D10050A3
:1051E00000D000502DE9FF41054690461E46FFF7CE
:1051F00055FF044609B32846FFF766FF18B1284655
:10520000FFF756FF28BB00230DF10F02CDE9003355
:105210008DF80E308DF80F3028460B460DF10E013B
:1052200005F09FFA474A04F1080132F8113023F0E3
:10523000020343F0010322F81130B8F1000F32D01D
:10524000284698F80070D8F80410FFF73DFF10B119
:10525000F1B13D4829E03B4804F1080C30F81C301E
:1052600023F02003DB04DB0C20F81C3081B1032F7A
:10527000EFD8D8F8042092F800E07246920002F1CC
:10528000A04202F550429FB9C2F81075C2F81075DD
:105290002C4A04F1080132F8113023F01C0343EAD0
:1052A000870322F811301EBB284804B0BDE8F08106
:1052B000D2F8101543EA4E3321F00301C2F810155D
:1052C000D2F8101543F0200321F44F3121F440713E
:1052D000C2F81015D2F81085290201F47C5141EA78
:1052E000080141EA0741C2F8101520F81C30CFE749
:1052F0002846D6E90076FFF71FFF002FD4D0114DC6
:10530000D5E90023974201D19E4218D010480DF1F3
:105310000F01FFF7EBFD0D4B9842C6D19DF80F2012
:1053200005EBC20308345E6035F8143045F832707E
:1053300043EA422343F4807325F81430B4E7002293
:10534000EEE700BFB40100200400AD0B0000AD0B80
:10535000280200202DE9FF4104461646FFF79EFE75
:10536000054631B32046FFF7AFFE20B92046FFF7D0
:105370009FFE002863D1334F05F1080837F8183035
:1053800013F01C0F02D04B78012B58D001238DF85D
:105390000F3000234A1CCDE9001320468B1C0DF171
:1053A0000F0105F0DEF937F8183043F0030327F852
:1053B00018301EB9244804B0BDE8F0812046FFF73C
:1053C00083FE00283BD096F800C0002361461D4FA5
:1053D00005F1080037F81050890025F0200501F18B
:1053E000A041ED0401F55041ED0CC1F8103527F84E
:1053F0001050C1F810357278002ADBD0D1F8103582
:10540000B67823F4991323F4F853C1F81035120435
:105410002302D1F810E502F4403203F47C53134325
:10542000320543EA0E0302F4801245EA4C35134379
:1054300045F02005C1F8103527F81050BAE70348A9
:10544000B9E700BFB40100200000AD0B0400AD0BB4
:10545000014BC3E902017047B401002010B50446B6
:10546000FFF726FE50B12046FFF718FE044B083028
:1054700033F8103003485B0B0B7010BD0248FCE79B
:10548000B40100200000AD0B0400AD0B70B50F4C53
:1054900094F87860BEB90E4D6022314604F11000D8
:1054A00006F09DFB0D20C5F87C61D5F87C31FDF739
:1054B0004BF84FF00043C5F804330123054884F846
:1054C0007830636770BD0448FCE700BFB40100207A
:1054D00000D000500000AD0B0500AD0B034B93F85E
:1054E0007800003818BF0120704700BFB4010020C9
:1054F00001460148FFF71ABD240200200146014879
:10550000FFF7F4BC2402002037B50446FFF7D0FDB6
:1055100008B32046FFF7D8FD0546E0B92046FFF75F
:10552000DFFD03B29B0003F1A04202F5514203F1FB
:10553000A043156003F550431268D3F8102542F0DC
:105540000102C3F8102521B10123134A8340C2F898
:10555000043303B030BD2046FFF7A0FD0F4B0830E9
:1055600033F81030C3F38203042B11D0052B11D074
:1055700001A80194FFF780FD019B0169D94001F06A
:1055800001010231204603B0BDE8304005F032B9D8
:105590000321F7E70221F5E700D00050B401002015
:1055A00010B50446FFF784FDC0B12046FFF78CFD1F
:1055B000A0B92046FFF794FD01230B4A8340C2F8AF
:1055C000083303B29B0003F1A04303F55043D3F823
:1055D000102522F00302C3F8102510BD2046BDE8B7
:1055E0001040002105F006B900D0005073B5044604
:1055F000FFF754FD1A4E00F1080536F81530DB07A9
:105600002CD52046FFF7CCFF2046FFF751FD68B1AF
:105610002046FFF765FD002203B29B0003F1A04383
:1056200003F55043C3F81025C3F810252046FFF7B3
:1056300083FD002301A826F815300194FFF71CFD17
:10564000019B00EB8300D0F80022064B134043F08F
:105650000203C0F80032044802B070BD0348FBE703
:10566000B4010020F0F0FCFF0000AD0B0400AD0B16
:105670002DE9F04F604B87B0D3F80403C0B240F07F
:105680000040FFF785FD051E80F29980DFF86C91E0
:10569000D9F820300493C9F82030594B1A6A059282
:1056A0001A624FF0000A0DF11008564B0AEB030B7B
:1056B0004CE093FAA3F3B3FA83F39BF80040019311
:1056C00043EA44142046FFF7E9FC4F4B083033F817
:1056D00010700120019B0394DA0803F0070398403F
:1056E00018F80230B90823EA000308F8023003A8CA
:1056F000FFF7C2FC039BC7F38206803350F82330C8
:105700004A073746C3F301432CD520463946DEB25B
:10571000FFF7F2FC03A80394FFF7AEFC039B803372
:1057200050F82330C3F301439E4207D100212046A5
:1057300005F060F83146204605F05CF803A80394B4
:10574000FFF79AFC0123039A93400362D8F80030D4
:10575000002BAED108F10408BAF1000F1DD14FF0B3
:10576000010AA2E7022B0CD10321204605F042F8E2
:1057700006F00503012BE1D139462046FFF7BCFCBA
:10578000DCE702212046019305F034F8032EF3D024
:10579000019B032BD2D1022EEDE74FF00040FFF723
:1057A000F7FCD9F8203016490493C9F820300A6A6A
:1057B000134305920A627FF474AF25F0004501247B
:1057C00015B907B0BDE8F08F95FAA5F3B3FA83F3E6
:1057D00004FA03F29B0003F1A04303F55043D3F80E
:1057E0001005D3F81015C0F30520C1F3014125EAD7
:1057F0000205FFF781FCE3E700D00050002584504C
:105800000028845050C70000B401002070B5084C37
:105810000E462379154643B92A20FCF795FE01234D
:10582000044823712660A56070BD0348FCE700BFF3
:10583000A41D00200000AD0B0C00AD0B002330B503
:105840000D4A50F8234003F5A2710133102B42F8A2
:105850002140F6D10023084A00F13C0103F5B2745F
:1058600051F8045F0133102B42F82450F6D1D0F8E0
:105870008030C2F8043330BD00A002500123024A38
:105880008340C2F80433704700A002500123024A4B
:105890008340C2F80833704700A00250F8B50126D3
:1058A00000270B4B0B4DD3F80C4304B9F8BD94FA09
:1058B000A4F0B0FA80F006FA00F324EA0304064BE1
:1058C00082009F502B68002BEFD0A9689847ECE727
:1058D00000A00250A41D002000A1025010B5174CDA
:1058E00023784BBB0378164AC3F34003C2F8003B4E
:1058F000037803F00103C2F804370378DB0710D5FF
:105900004FF47F03D3F83011D3F83431072908D18D
:10591000023B032B05D80B49CB5C13B10123C2F822
:1059200028370520FCF732FE10B90520FCF70CFEE5
:1059300001230548237010BD0448FCE772220020B3
:10594000004000505EC700000000AD0B0C00AD0B26
:105950004FF0502310B5D3F8044361070AD5D3F8AC
:1059600008213AB10022C3F80821D3F80831124BBC
:105970001B689847A2060CD54FF05023D3F814218A
:105980003AB10020C3F81401D3F814310B4B1B6853
:10599000984763060FD54FF05023D3F8182152B122
:1059A0000022C3F81821D3F81831044B0120BDE8B8
:1059B00010401B68184710BDB41D0020B01D00200A
:1059C000054B10F0800FA3F1900208BF134600F0C2
:1059D0000F0003EB00107047601F0020002307B585
:1059E000064A01A81370064A137001230193054B60
:1059F0001B68984703B05DF804FB00BF76220020C7
:105A000075220020F81F002013B5194BD3F800446D
:105A1000C3F80044E105D3F8003408D50122154B42
:105A200001A81A7002230193134B1B689847A20523
:105A300008D500220F4B01A81A70032301930E4BC7
:105A40001B689847630510D50A4B1A786AB1002283
:105A50001A700122064B01A8C3F808259A659B6DB0
:105A600004230193044B1B68984702B010BD00BF8C
:105A70000060035076220020F81F0020F8B54B6824
:105A800006469A4228BF1A4615460C46084F402340
:105A90003846096806F0ABF8C6E900756068236807
:105AA000401B2B4460602360003818BF0120F8BD04
:105AB000B81D002070B54B6806469A4228BF1A46AA
:105AC0000D46144692B140230968094806F08FF844
:105AD000074BC6E900346B68201EA3EB04036B6020
